:0400000508007399E3
:020000040800F2
:1000000000C0002081100008D1100008D1100008A5
:10001000D1100008D1100008D11000080000000025
:10002000000000000000000000000000D1100008E7
:10003000D110000800000000D1100008D110000805
:10004000D1100008D1100008D1100008D11000080C
:10005000D1100008D11000082D0D0008D1100008A3
:10006000D1100008D1100008D1100008D1100008EC
:10007000D1100008D1100008D1100008D1100008DC
:10008000D1100008D1100008D1100008D1100008CC
:10009000D1100008D1100008D1100008D1100008BC
:1000A000D1100008D1100008D1100008D1100008AC
:1000B000D11000080000000000000000D11000086E
:1000C000D11000080000000000000000D11000085E
:1000D00000000000D1100008D1100008000000004E
:1000E000D1100008D110000800000000000000003E
:1000F0000000000000000000000000000000000000
:10010000000000000000000000000000D110000806
:100110000000000000000000890C0008D110000859
:10012000D1100008D1100008D1100008D11000082B
:10013000D1100008000000000000000000000000D6
:10014000D1100008D1100008D1100008650C00087B
:10015000D1100008D1100008D1100008D1100008FB
:10016000D1100008D1100008D110000800000000D4
:10017000D1100008D11000080000000000000000AD
:10018000D1100008D1100008D110000800000000B4
:1001900080B4064A064B936000AF1A6882F3088861
:1001A0005B68BD465DF8047B184700BF00ED00E0CA
:1001B0000050000870B590B000F0D6FB012000F0B0
:1001C00035FC00F011FE00F0B3F8002853D12D4BA0
:1001D000D3F8942092004ED5D3F8942042F4000234
:1001E000C3F8942000F046FA00F0BEFB002000F0B7
:1001F0001DFC00F04DFB00F051FC00F015FE03F07B
:10020000B7F940220021684603F0F7FB00241E4E98
:10021000254600F02DFD401B052804D900F04EF9BD
:1002200000F026FD054600F027FE684600F004FEBB
:10023000002807DD684603F02FFA402200216846B7
:1002400003F0DBFB03F096F9337823B1FA2000F0DA
:10025000AEFD00F0B7FD00F0A1FD10B900F008FD03
:10026000044600F005FD41F28833001B9842D0D9C6
:1002700000F004FECDE700F051F80028B2D0FFF7FF
:1002800087FFAFE700100240D0000020054B00229E
:1002900010B51A600A24E0B2013400F055FC6C2C51
:1002A000F9D110BDDC00002000B5ADF6040D0A49FF
:1002B0004FF40062684603F087FB00236B20CDF803
:1002C000FC3700F041FC04484FF40062694600F03E
:1002D0007DFC0DF6040D00BD0058030800B50D4B64
:1002E000D3F8F83FADF6040D8BB10B494FF4006223
:1002F000684603F069FB00236B20CDF8F83700F067
:1003000023FC05484FF40062694600F05FFC0DF6DF
:10031000040D00BD0050030800580308034BD3F838
:10032000F80FB0FA80F04009704700BF0050030892
:10033000034BD3F8FC0FB0FA80F04009704700BFC0
:10034000005003082DE9F341B1F8088098FA98F8B5
:100350001FFA88F80938012340450C468DF807300C
:1003600040F398800B78403B072B00F29580DFE844
:1003700003F0043A3640433C8B77D1F80150474AAA
:1003800025F07F4545F0006505F17843A3F5A043CE
:1003900093421BD8424B08EB05069E4216D8414FAC
:1003A0003B681BB1404BD3F8F83F4BB9FFF76EFFEA
:1003B0003D4BD3F8F83F012038600BB903F0E2FA67
:1003C0003A4B1A68B24203D900233B60302007E061
:1003D000424604F10A0128461E6000F0F7FB0020A7
:1003E00002B0BDE8F081FFF779FF314B01221A70AE
:1003F000F5E7FFF74BFFF2E72A4B00241C600121D1
:1004000005230DF107008DF8073002F097FE01215A
:100410000DF107008DF8074002F090FE01210DF16B
:1004200007008DF8074002F089FEFF2301210DF13E
:1004300007008DF8073002F081FE0F211D4802F001
:100440007DFE01210DF1070002F078FE1A48082117
:1004500002F074FE01210DF1070002F06FFEBEE70D
:100460008B7ACD2B0ED1CB7ADE2B0BD10B7BBA2B1B
:1004700008D14B7BAA2B05D1FFF716FF00238DF87F
:100480000730E7E72723FAE7012000F023FB00F01D
:10049000F5FCA4E70320A3E70120A1E7F70F030081
:1004A000F85F0308D800002000500308DC0000209B
:1004B000D0000020683A0008783A00080C490D483E
:1004C0000A6803688AB1013B0360581E272882BF6F
:1004D000B2FA82F252090A600A2203EB4300534344
:1004E0001B0443EA002000F0A3BB0133ECE700BF8C
:1004F000D400002004000020024A1368013318448D
:100500001060704700000020024BD868C0F3022042
:10051000704700BF00ED00E0034AD2F8943043F08A
:100520000103C2F89430704700100240024BD3F828
:100530009400C0F34000704700100240024A136864
:1005400043F001031360704700100240024B18682B
:10055000C0F34000704700BF00100240024A136819
:1005600043F008031360704700100240034A136809
:1005700023F0F00303431360704700BF00100240F4
:10058000034A936823F0030303439360704700BF5B
:1005900000100240034A936823F4605303439360BE
:1005A000704700BF00100240044AD2F8883023F0A0
:1005B00040630343C2F88830704700BF0010024018
:1005C000034A136823F0070303431360704700BF17
:1005D00000200240034A136823F4C06303431360FE
:1005E000704700BF00700040054BDA6C024382B0D8
:1005F000DA64DB6C03400193019B02B0704700BFDB
:1006000000100240054B9A6D024382B09A659B6DC3
:1006100003400193019B02B0704700BF00100240ED
:100620004FF0E022136943F00403136170470000A8
:10063000034AD2F8883023F00303C2F888307047A9
:1006400000100240024A936823F4E063936070470D
:1006500000100240024A936823F0F0039360704751
:1006600000100240024A536823F47F4353607047EE
:100670000010024038B5414CA36D43F08053A36590
:100680000220FFF79DFF3E4B1B6803F007038342E8
:1006900003D03C48AE2100F0FDFB4FF40070FFF7A3
:1006A00099FFD4F8983043F00103C4F89830D4F897
:1006B00098309B07FBD5FFF72FFFFFF737FF012887
:1006C000FBD1FFF73BFFFFF741FF0128FBD1B02033
:1006D000FFF744FFFFF74AFF0020FFF7C3FFFFF7D4
:1006E0004FFFA56815F00C05FBD14FF46050FFF7E4
:1006F000B1FFFFF7A7FFFFF74DFF234801F012FFFF
:100700002148FFF78DFF01F01BFF2846FFF790FF00
:10071000FFF74AFF4FF08070FFF774FFA36B0343AE
:10072000A363A36B23F08073A363184B5A6822F072
:10073000E0625A605A6822F000425A605A6822F019
:10074000405242F000525A605A686FF30F0242F46E
:100750003B4242F07F025A605A6822F47F0242F420
:1007600008125A601A6822F47C5242F400521A604D
:10077000FFF7CAFE064B83F8235038BD0010024035
:1007800000200240813A0008006CDC02006000405A
:1007900000ED00E026498B6D43F0805310B54FF417
:1007A00080608B65FFF716FFFFF7B6FEFFF7BEFE12
:1007B0000128FBD1FFF7C2FEFFF7C8FE0128FBD1DD
:1007C0008020FFF7CBFEFFF7D1FE0020FFF74AFFA6
:1007D000FFF7D6FE8C6814F00C04FBD14FF44050A8
:1007E000FFF738FFFFF72EFFFFF7D4FE114801F0A7
:1007F00099FE1048FFF714FF01F0A2FE4FF0406091
:10080000FFF716FFFFF7D0FEFFF77EFE0A4B2046EC
:1008100083F82340FFF7D4FE084B1B685B0706D024
:10082000BDE81040064840F2AD1100F033BB10BDEA
:10083000001002400024F40000ED00E0002002401F
:10084000813A000808B9FFF7A5BF70470C4A0D4967
:100850000D4808B5536843F48063536002F5D03205
:10086000936D43F080639365002201F094FF074984
:10087000054801F0A5FFBDE80840034801F0A7BF07
:100880000070004010000020E000002094000020D4
:10089000F0B54FF0804495B000250120FFF7B2FE7F
:1008A0004FF47A77256101A92046CDE90375ADF8AB
:1008B0000450029501F0D0F8236843F080032360D0
:1008C000A36823F4A03323F007030126A3600CAA36
:1008D000602310212046CDE90C36CDE90E67109536
:1008E00001F0EEF8A36923F48063A3610CAA4FF42E
:1008F00080712046CDE90D6601F0E2F8E36923F04E
:100900000403E3610CAA4FF480512046CDE90D6643
:1009100001F0D6F8E36923F48063E361A36823F070
:100920000803A360A36823F48043A360A36823F4AF
:100930003F43A360636823F070036360A36823F000
:100940008003A3600E22022306A94FF09040CDE958
:100950000623CDE90855CDE90A5600F0DBFF2368F0
:100960003343236015B0F0BD70B501204FF09044C3
:10097000FFF73AFE0220FFF737FE2168012292FAC4
:10098000A2F3B3FA83F39340032000FA03F321EABE
:10099000030392FAA2F12360E56892FAA2F1B1FA98
:1009A00081F192FAA2F39140B3FA83F300FA01F1D4
:1009B000934025EA010102FA03F30B43E3601A4B6B
:1009C00008211D6891FAA1F4B4FA84F491FAA1F611
:1009D0009440B6FA86F600FA04F425EA040406FA0E
:1009E00002F5AA4022431A605A6822F008025A60AF
:1009F0009C6891FAA1F2B2FA82F2520000FA02F275
:100A000024EA020291FAA1F49A60DC6891FAA1F258
:100A1000B2FA82F25200904024EA000491FAA1F066
:100A2000DC60996270BD00BF0004004830B501462B
:100A300087B01020174CFFF7E5FD4BF6803245F6E6
:100A4000C053002908BF1346ADF8043000255A23CF
:100A500001A92046CDE9025300F0FEFF236823F0F0
:100A600080032360636823F070036360A36823F04E
:100A70008003A360E36843F00103E360236843F06D
:100A800001032360256162B6034B4FF480025A6074
:100A900007B030BD0010004000E100E008B54FF4A1
:100AA0008020FFF7A1FD034A136843F0040313609D
:100AB00008BD00BF00080650044B5A69002ABFBF9A
:100AC000034A9A6002F188329A607047002002401F
:100AD0002301674508B5002829D100F097F9154989
:100AE000154B002808BF19461448036A21F0E0613D
:100AF0008B421BD072B60369DA03FCD4FFF7DCFF2C
:100B000043695B0041BF0E4BC36003F14433C360D4
:100B10000A4B19625A6942F400325A611A69D203C7
:100B2000FCD45A6942F000425A6162B608BD0549D8
:100B3000DAE700BFB9F8FFFFAAF8FFFF0020024084
:100B40003B2A1908AAF8FFF708B572B610490B69D5
:100B5000DB03FCD4FFF7B0FF0B690B614B696FF34C
:100B60000A034B614B6943EAC00040F00200486150
:100B70004B6943F480334B61054B1A69D203FCD4B3
:100B80001A695A6922F007025A6162B608BD00BFAD
:100B90000020024010B572B60B490C69E403FCD486
:100BA0000C690C614C6944F001044C6102604360C3
:100BB0000B69DB03FCD40B6901230B614B6923F048
:100BC00001034B6162B610BD002002402DE9F743DE
:100BD0001546164A1369DB03FCD4FFF76DFF20F0BE
:100BE00007002C4646194F19E8462B1B9D42A6EBE1
:100BF000040902D803B0BDE8F083082C2246A7EB15
:100C0000040128BF0822404602F0DEFE072C06D869
:100C1000C4F10802FF2108EB040002F0EEFEDDE95A
:100C200000234846FFF7B6FF083CDEE700200240FD
:100C300030F07F43034B4FF0080214BF9A619A6271
:100C4000704700BF0004004808B5002000F0BCF960
:100C500030B9012000F0B8F9003818BF012008BDF4
:100C60000120FCE7014800F07BBB00BFA41C002072
:100C7000034B044A5B6A12685A2000FB023070473B
:100C8000001000409003002038B51F4B1F4C00227D
:100C90001A611F4A136801331360FFF7E9FF2368E5
:100CA000C01A5A280AD91B4B186838B140B202F052
:100CB0008FFC72B6FFF7DCFF206062B6164B1A6835
:100CC000164B9A421CD1002000F07EF9C8B90120D1
:100CD00000F07AF9011E18BF0121114DFFF7C8FF7E
:100CE0002B68C01A19280BD90E4C237823B919B1D7
:100CF000FFF7BEFF0C4B1860FFF7BAFF21702860AA
:100D000038BD0121E9E700BF00100040800300204A
:100D1000900300208403002008000020490C0008F4
:100D2000880300207C0300208C03002008B50B4BB7
:100D30005A695A610A4B1A680A4B9A420DD10A49FC
:100D4000FFF796FF0B68C01A192803D9FFF790FF29
:100D5000064B1860FFF78CFF086008BD00040140D7
:100D600008000020AB0D0008880300208C03002041
:100D700038B5044672B6FFF77BFF064B186062B6C3
:100D8000054D2CB12B68A34202D060B202F020FCCA
:100D90002C6038BD80030020840300204FF0904376
:100DA0001869C04300F001007047FFF7F7BF10B5A6
:100DB0000146FFF75DFF0446FFF75AFF031B8B4216
:100DC000FAD310BDBFF34F8F0549064BCA6802F432
:100DD000E0621343CB60BFF34F8F00BFFDE700BF5E
:100DE00000ED00E00400FA0508B500F003F928B1B1
:100DF00000F098F8024B034A136008BD024BFAE773
:100E0000490C000808000020AB0D0008044BD3E992
:100E10000802044B9A420CBFC0F340000020704708
:100E200000880308791E55AA024B1B780BB9FFF7FF
:100E30000DBD70477D03002010B5044600F06CF82E
:100E400018B1204600F048F8402010BD024607497E
:100E50000748838803F03003302B04D00548402333
:100E6000812101F08ABC0139F3D17047410D0300A3
:100E700000680040E00000207047000080B500AF2F
:100E800072B6034B1A6882F308885B689847FEE7DE
:100E90000000FF1FFEE70000F8B50C4E3568632D1B
:100EA000014610DC0A4F0B483C68402200EB8410DE
:100EB000013402F089FD642CA8BF002401353C6098
:100EC00035600020F8BD4FF0FF30FBE7941C002098
:100ED0009C1C00209403002010B50C4C0C4B216886
:100EE000402203EB811102F06FFD0A490A68002AD3
:100EF00009DD23680133642BA8BF0023013A236076
:100F00000A60002010BD4FF0FF30FBE7981C002066
:100F100094030020941C0020014B1868704700BF08
:100F2000941C002070B5174A1748936C43F4803323
:100F300086B0022493643023CDE900340023CDE948
:100F400002330493694609230593402500F0E2FC2F
:100F5000012669460C480095039600F0DBFC0B4B1C
:100F60000B4A1E6019680A431A606FF070021A611A
:100F70001D621C635A6822F003025A6003229A60C1
:100F800006B070BD0010024000040048004002405E
:100F9000C0400279074B1A6822F002021A6003224D
:100FA0009A601A6822F010021A601A6842F002026F
:100FB0001A60704700400240024BDA68D207FCD545
:100FC000DB6870470040024008B5094958B1012864
:100FD0000CD0FFF7DFFFFFF7EFFF886B2C288CBFEB
:100FE0000020012008BD10238B62F2E72023FBE7DD
:100FF0000040024030B5204D2B78002B3AD11F4ADB
:101000000223106893FAA3F1B1FA81F10324490095
:1010100004FA01F120EA010193FAA3F01160D0680B
:1010200093FAA3F1B1FA81F193FAA3F3490004FA18
:1010300001F1B3FA83F320EA01005B00012101FA18
:1010400003F30343D36000BF00BF00BF00BF1069BC
:10105000C0F340004840C0B22870D56891FAA1F3AF
:10106000B3FA83F38B409C4025EA040491FAA1F182
:10107000D46030BD0120FCE7A01C00200004004823
:10108000DFF834D000F026F8002103E00B4B5B586A
:10109000435004310A480B4B42189A42F6D30A4A8D
:1010A00002E0002342F8043B084B9A42F9D302F0D5
:1010B000ADFCFFF77FF8FEE700C00020EC3A000827
:1010C00000000020D0000020D0000020C4400020FC
:1010D000FEE700000E4AD2F8883043F47003C2F8ED
:1010E00088300C4B1A68002042F001021A609860A8
:1010F0001A6822F0A85222F410221A604FF480528B
:10110000DA601A6822F480221A609861FFF79ABBAD
:1011100000ED00E0001002402DE9F041044686B0E9
:10112000002869D090F8293403F0FF021BB980F839
:10113000282401F00BFA0323254684F8293455F8B6
:10114000100B00F01FFE0FCD6E460FC62B683360EC
:1011500004F1040898E80E00206800F001FE002168
:10116000206800F019FE00212246234604F11005F4
:101170000126084683F82810D98601310F29C3E9D2
:101180000E0083F8296083F82B00186403F1200314
:10119000F0D100231F4682F8283201330F2BC2E919
:1011A0008E7782F8297282F82B72C2F8407202F1AF
:1011B0002002F0D10FCD6E460FC62B68336098E841
:1011C0000E00206800F0EAFD012384F8247084F802
:1011D0002934E369012B02D1204600F084FB236A05
:1011E000012B02D1204600F06AFB206801F090F844
:1011F000002006B0BDE8F0810120FAE710B590F8B4
:101200002834012B04460CD0012380F828340068D0
:1012100001F073F8206800F0AAFD002084F828048B
:1012200010BD0220FCE710B590F82824012A0446DE
:101230000BD0012280F8282480F82410006801F0E7
:1012400056F8002084F8280410BD0220FCE770B591
:10125000054601F00F0011F0800F4FEA401414BF53
:1012600004F1280104F50A7105EB401615BF491970
:1012700049190124002414BF86F8294086F8294220
:101280000A614A780870CB7002B1C881022B04BF92
:1012900000230B7195F82834012B09D0012328680D
:1012A00085F8283400F098FD002085F8280470BDEA
:1012B0000220FCE701F00F0211F0800F4FEA421309
:1012C00010B514BF03F1280103F50A71044618BFD5
:1012D000091900EB42100BBF09190123002380F804
:1012E000293008BF80F829320A7094F82834012B7D
:1012F00009D00123206884F8283400F0C1FE0020C2
:1013000084F8280410BD0220FCE738B501F00F0175
:1013100000EB4114002584F8281284F82952C4E90E
:101320008F23C4F8445204F50A71006801F00EF8E6
:10133000284638BD38B501F00F0100EB4114C4E96F
:101340000F23012384F82810002584F82930214632
:1013500065642831006800F0F9FF284638BD0000B8
:101360002DE9F0470446006800F0DAFF020408D5D2
:10137000C24E40F68F782068B0F844301A0400F16D
:10138000D080206800F0CCFF43050FD52268B2F86A
:10139000443023F480631B041B0C2046A2F8443025
:1013A00001F029F900212046FFF73DFF206800F0F9
:1013B000B7FF4304226807D5B2F8443023F48043D2
:1013C0001B041B0CA2F84430104600F0A9FF870450
:1013D000226807D5B2F8443023F400531B041B0CD9
:1013E000A2F84430104600F09BFFC60426D52268C0
:1013F000B2F8403023F004031B041B0CA2F8403069
:10140000B2F8403023F008031B041B0CA2F8403054
:1014100094F86034012B05D1002184F86014204633
:1014200000F077FA204601F0F4F82268B2F8443070
:1014300023F480531B041B0CA2F84430206800F0F6
:101440006FFF05051DD52068B0F840309BB243F012
:101450000803A0F84030B0F8443023F400631B04C4
:101460001B0CA0F84430B0F840309BB243F00403AA
:10147000A0F8403000F054FFC00402D4204601F030
:10148000C7F8206800F04CFF010629D52368B3F89F
:10149000442022F080021204120CA3F8442094F895
:1014A0006024002A40F08A81B3F8402092B242F0D2
:1014B0000402A3F84020B3F8402092B242F00802A0
:1014C0000121A3F8402084F86014B3F85430C3F32A
:1014D0008D0303F03C03C4F86434204600F019FA8D
:1014E000206800F01DFF82050BD52268B2F8443059
:1014F00023F400731B041B0CA2F84430204601F0B7
:1015000076F8206800F00CFFC30508D52268B2F811
:10151000443023F480731B041B0CA2F84430BDE854
:10152000F087B0F84450A9B215F00F0540F0AA803A
:1015300011F01001038828D19BB23340038094F846
:101540002820B0F8503000EBC20212FA83F3E26BAD
:10155000B3F80234C3F309031A446364E263204618
:1015600001F03EF894F82430002B3FF404AF226CD5
:10157000002A7FF400AF94F82430216843F0800300
:10158000A1F84C3084F82420F5E61F059AB21ED548
:1015900094F82822B0F8503000EBC20212FA83F31C
:1015A00004F58661B3F80634B4F82E22C3F30903B8
:1015B000C4F8443200F09CFF2268138823F07003C3
:1015C0001B051B0D1380204600F0F2FFD3E6150427
:1015D0007FF5D1AE038823F070031B051B0D03803C
:1015E00094F82822B0F8503000EBC20212FA83F3CC
:1015F000B3F80634C3F30903C4F8443263B1B4F852
:101600002E22D4F83C1200F073FFD4F83C32D4F808
:1016100044221344C4F83C320021204600F0CEFF9F
:101620002268D4F83852B2F8501002F2064089B25B
:10163000B5B9435A23F440639B049B0C43F4004325
:101640004352138823F4804323F070031B041B0CC4
:1016500083F4405343F4004343F0800313808AE64D
:101660003D2D95BF05F00103054B03EB55036D09B7
:1016700094BF9B0243EA85239BB2E1E70F8FFFFFF4
:101680000080FFFF30F8253019041FFA83FA39D59E
:1016900030F8253008EA030304EB451220F8253022
:1016A00092F8283292F834C2D2F83C124FEA451927
:1016B000DF00BCF1000F48D1B0F8503017FA83F3C7
:1016C0000344B3F80674C7F3090727B1B2F82E2212
:1016D0003B4600F00DFFA144D9F84432D9F83C2232
:1016E00099F828123B44C9F84432D9F840323A44B8
:1016F000C9F83C221BB1D9F83802874257D220469C
:1017000000F05CFF1AF0800F3FF435AE236833F829
:10171000252092B2324023F8252004EB4515B3F87A
:10172000502095F8281003EBC10313FA82F3EA6BFB
:10173000B3F80234C3F309031A446B642B6CEA63F5
:101740002046C3BB00F04CFF15E630F8233013F4FD
:10175000804FB0F8503017FA83F303441DD0B3F82C
:101760000274C7F3090727B1B2F830223B4600F0F4
:10177000BFFE04EB0903226893F8281232F82130E7
:1017800023F4E04323F070031B041B0C43F40043D9
:1017900043F0C00322F821309DE7B3F80674C7F385
:1017A0000907002FE5D0B2F832223B46DFE720469A
:1017B000FFF7ABFDA6E7FFF7BDFDDCE5204600F037
:1017C00027FF8DE638B5436801F00F059D420446BA
:1017D00028D80B061DD56B0103F128010344012213
:1017E000014483F8292001238B700D7094F828247C
:1017F0009A4219D0206884F8283400F014FD25B9E5
:10180000206804F5866100F08FFD002084F828042C
:1018100038BD4B0103F50A7103440022014483F8EB
:101820002922E0E70120F3E70220F1E738B5436819
:1018300001F00F029A42044626D811F0800F4FEAB9
:10184000421315BF03F1280103F50A71091909199B
:1018500000EB421014BF012300234FF0000514BF1A
:1018600080F8293080F829328D700A7094F8283475
:10187000012B0BD00123206884F8283400F0F3FCFE
:1018800084F82854284638BD0120FCE70220FAE7F6
:1018900011F0800F1BBF01F00F0100EB411000EBB6
:1018A0004110283008BF00F50A7099B21AB90273C6
:1018B000C18000207047012202738360F9E702684B
:1018C0000123C0F86C34B2F858309BB243F00103E6
:1018D000A2F85830B2F858309BB243F00203A2F895
:1018E000583000207047034601210268C0F8681490
:1018F000002083F86004B2F854309BB20B43A2F886
:101900005430B2F854309BB243F00203A2F8543082
:10191000704770472DE9F0410C6894FAA4F501274F
:10192000B5FA85F5032634FA05F30DD14B68013B72
:10193000012B06D84268CB6822EA040263431343B2
:1019400043600120BDE8F08107FA05F3234067D02A
:10195000D1F804C0D0F8008093FAA3FEBEFA8EFE40
:1019600093FAA3F2B2FA82F24FEA4E0E06FA0EFE94
:10197000520028EA0E080CFA02F248EA020202605B
:101980000CF1FF32012A16D8D0F808E093FAA3F23E
:10199000B2FA82F293FAA3F8520006FA02F22EEAA1
:1019A000020EB8FA88F88A684FEA480802FA08F284
:1019B0004EEA02028260D0F80CE093FAA3F2B2FA87
:1019C00082F293FAA3F8520006FA02F22EEA020E0D
:1019D000B8FA88F80A694FEA480802FA08F24EEAAB
:1019E0000202BCF1020FC2601AD1FF2BD1F814C061
:1019F00018D8D0F820E093FAA3F8B8FA88F893FA48
:101A0000A3F24FEA8803B2FA82F24FF00F0808FA05
:101A100003F392002EEA03030CFA02F2134303626B
:101A2000013580E7426A1B0A93FAA3FEBEFA8EFED6
:101A300093FAA3F34FF00F08B3FA83F34FEA8E0E35
:101A400008FA0EFE9B0022EA0E020CFA03FC42EAA0
:101A50000C024262E4E70000174A036890420BD090
:101A6000B0F1804F08D002F5A052904209D1CA6867
:101A700023F44073134307E04A6823F070031343D1
:101A8000F5E70E4A9042F2D003608B68C3620B8880
:101A90008362094B984207D003F5A053984203D0C4
:101AA00003F58063984201D10B7C0363436943F0E3
:101AB0000103436101207047002C014000440140B4
:101AC000B1F5805F30B500F0F08009D8102975D0ED
:101AD000B1F5807F00F0AE80012935D0002030BD07
:101AE000B1F5803F00F00E81B1F5801FF6D1036A99
:101AF000146823F480130362036A416D21F080713E
:101B000021F4E04141EA0424116923F4001343EA7B
:101B10000153516823F4801343EA01538F498842EB
:101B200007D001F5A051884203D001F580618842B9
:101B300006D14168956921F4802141EA85214160FF
:101B4000D2684465C26536E0036A156823F0010374
:101B50000362036A4168846924F4803424F07304C6
:101B60002C43156923F002032B43556823F001032E
:101B70002B437A4DA84207D005F5A055A84203D0C3
:101B800005F58065A84212D1556923F0080343EAA0
:101B90008503956823F0040343EA8503956921F4DE
:101BA00080712943D56921F4007141EA4501D26869
:101BB0004160846142630362012090E7036A156813
:101BC00023F010030362036A4168846924F080747F
:101BD00024F4E64444EA0524156923F0200343EA8B
:101BE0000513556823F0100343EA05135B4DA84223
:101BF00007D005F5A055A84203D005F58065A84299
:101C000013D1556923F0800343EA8513956823F0C7
:101C1000400343EA8513956921F4806141EA850117
:101C2000D56921F4006141EAC501D268416084614F
:101C30008263C0E7036A156823F480730362036A52
:101C40004168C46924F4803424F073042C4315697A
:101C500023F4007343EA0523556823F4807343EAB1
:101C600005233E4DA84207D005F5A055A84203D054
:101C700005F58065A84213D1556923F4006343EA52
:101C80008523956823F4806343EA8523956921F4CD
:101C9000805141EA0511D56921F4005141EA45110D
:101CA000D2684160C461C26385E7036A156823F4A2
:101CB00080530362036A4468C16921F0807121F492
:101CC000E64141EA0521156923F4005343EA05334F
:101CD000556823F4805343EA0533204DA84207D0CA
:101CE00005F5A055A84203D005F58065A84204D1AA
:101CF000956924F4804444EA8514D2684460C16143
:101D0000026458E7036A146823F480330362036AA9
:101D1000416D21F4803121F070010C43116923F4ED
:101D2000003343EA0143516823F4803343EA01431B
:101D30000A49884207D001F5A051884203D001F535
:101D40008061884206D14168956921F4803141EA79
:101D500005214160D268446582652CE7002C014072
:101D600084B001A880E80E0004B000207047B0F8ED
:101D700040309BB243F43F4343F08003A0F840302F
:101D800000207047B0F8403023F47E535B045B0CB6
:101D9000A0F84030002070470020704784B010B594
:101DA000044603A880E80E0000200123A4F8403078
:101DB000A4F84000A4F84400A4F85000B4F840305F
:101DC0009BB243F43F4343F08003A4F84030BDE8A6
:101DD000104004B070470000F0B50A78CD7830F8B4
:101DE000224024F4EC4424F0700424040346240C20
:101DF000032D03D8DFE805F0434B4947012023F8C2
:101E0000224033F822409B4EA4B23440144344F4A1
:101E1000004444F0800423F822400C7B03EBC2070B
:101E2000002C78D1CC8891F801C064086400BCF122
:101E3000000F2FD0B3F8501017FA81F1A1F8004429
:101E400033F822104C0609D533F8221089B23140FC
:101E500041F4004141F0C00123F8221033F8221070
:101E6000854C89B2012D01EA040101D081F02001E5
:101E700041F4004141F0800123F82210B3E044F422
:101E800000742846BBE744F4C0640020B7E744F47C
:101E90008064FAE7B3F8505017FA85F5A5F80444C2
:101EA000B3F850500C6917FA85F534BBB5F8061431
:101EB00021F440618904890C41F40041A5F806141D
:101EC00033F8221049040DD533F8221021F4E041F3
:101ED00021F070010904090C41F4404141F08001F6
:101EE00023F8221033F8221021F4804121F07001F0
:101EF0000904090C81F44051BAE73D2C95BF04F068
:101F000001015E4901EB5401640994BF890241EA71
:101F1000842189B2D2E733F82240A4B2344044F499
:101F2000014444F0800423F82240B3F85040B1F853
:101F300008C017FA84F42CF0010CA4F800C4B3F81C
:101F4000504017FA84F44F8927F00107A4F804746D
:101F50004978002948D133F822104F0409D533F8C5
:101F6000221089B2314041F4404141F0800123F810
:101F7000221033F822104D060DD533F8221021F42B
:101F8000E04121F070010904090C41F4004141F0E5
:101F9000C00123F8221033F8221021F4E04121F08F
:101FA00070010904090C41F4004141F0C00123F81B
:101FB000221033F8221021F4804121F0700109042D
:101FC000090C48F2800481F44051214323F8221087
:101FD00033F8221021F4E04121F040010904090CFA
:101FE0000C4323F82240F0BD33F822104C0409D5ED
:101FF00033F8221089B2314041F4404141F0800170
:1020000023F8221033F8221049060DD533F8221098
:1020100021F4E04121F070010904090C41F4004170
:1020200041F0C00123F8221033F82210124C21F4A1
:10203000E04121F070010904090C41F4404141F0F4
:10204000800123F8221033F8221089B22140012D9B
:1020500018BF81F0200141F4004141F0800123F8D4
:10206000221033F8221021F4804121F0700109047C
:10207000090CFDE68F8FFFFFBF8FFFFF0080FFFF82
:102080004A780B78097BD9BB0AB330F82320510674
:102090000DD530F8232022F4E04222F07002120421
:1020A000120C42F4004242F0C00220F8232030F823
:1020B000232022F4E04222F040021204120C42F4E7
:1020C000004242F0800220F823200020704730F8C0
:1020D000232052040DD530F8232022F4E04222F0D0
:1020E00070021204120C42F4404242F0800220F8C6
:1020F000232030F8232022F4804222F07002DCE713
:10210000002A4AD130F8232051040DD530F823207D
:1021100022F4E04222F070021204120C42F4404217
:1021200042F0800220F8232030F8232052060DD5FB
:1021300030F8232022F4E04222F070021204120C44
:1021400042F4004242F0C00220F8232030F823205D
:1021500022F4E04222F070021204120C42F4004217
:1021600042F0C00220F8232030F8232022F48042DD
:1021700022F070021204120C48F280010A4320F887
:10218000232030F8232022F4E04222F040021204FF
:10219000120C114320F8231097E730F82320510444
:1021A0000DD530F8232022F4E04222F07002120410
:1021B000120C42F4404242F0800220F8232030F812
:1021C000232052060DD530F8232022F4E04222F0DD
:1021D00070021204120C42F4004242F0C00220F8D5
:1021E000232030F8232022F4E04222F0700212046F
:1021F000120C42F4404242F0800220F8232030F8D2
:10220000232022F4E04222F040021204120C48F291
:1022100080010A4320F8232030F8232022F4804252
:1022200022F07002B3E74B780A788BB130F8223095
:1022300023F4E04323F040031B041B0C83F0100342
:1022400043F4004343F0800320F82230002070471D
:1022500030F8223023F4804323F070031B041B0C5E
:1022600083F48053ECE74B780A781BB330F82230C4
:1022700059060DD530F8223023F4E04323F07003E3
:102280001B041B0C43F4004343F0C00320F822302E
:1022900030F8223023F4E04323F040031B041B0CEE
:1022A00083F0300343F4004343F0800320F82230EE
:1022B0000020704730F822305B040DD530F8223012
:1022C00023F4E04323F070031B041B0C43F440434E
:1022D00043F0800320F8223030F8223023F480438A
:1022E00023F070031B041B0C83F44053DAE711B98D
:1022F0008023A0F84C3000207047B0F858306FEAC7
:1023000043436FEA53439BB2A0F858300020704714
:10231000B0F85830C3F30E03A0F8583000207047CF
:10232000B0F8440080B270470020704702F5806228
:10233000013310445B0801EB4303401A994200D17A
:1023400070470A880A520231F8E70000F8B50446DF
:1023500048788B690A690F7B01280D4661D1934249
:102360008ABF991A00211346A9619EB2696907BB09
:10237000EA8833462046FFF7D9FF2A78B4F8503070
:10238000D20012FA83F32344A3F802642A7834F8C3
:10239000223023F4E04323F040031B041B0C83F0A2
:1023A000300343F4004343F0800324F8223000203C
:1023B000F8BD2A7834F8223013F0400FB4F85030CA
:1023C0004FEAC20212FA83F32344204615BFA3F852
:1023D0000664A3F802646A892A893346FFF7A6FFD8
:1023E0006B782A7873B934F8223023F4E04323F071
:1023F00070031B041B0C43F4004343F0C00324F898
:102400002230C3E7012BC1D134F8223023F4E0435A
:1024100023F070031B041B0C43F4404343F0800380
:10242000EDE793428CBF991A0021A96188BF13463A
:1024300029785FBBB4F8502004F2064010FA82F20B
:1024400053B932F8313023F440639B049B0C6FEA9C
:1024500043436FEA53430BE03D2B05D803F00100E3
:1024600000EB53039B0203E05809204B43EA80230F
:1024700022F831302A7834F8223023F4804323F0D4
:1024800070031B041B0C83F440538AE70028F1D12E
:10249000B4F8500004F2024212FA80F0C3B930F8E6
:1024A000312022F440629204920C42F4004220F85F
:1024B0003120B4F8502004F2064010FA82F2002BCA
:1024C000BFD03D2BCAD909485B0940EA8323CFE737
:1024D0003D2B95BF03F00102044A02EB53025E0953
:1024E00094BF920242EA862292B2E0E70080FFFFA8
:1024F00002F58062F0B510445D080A462E46471A80
:10250000BC18023236B9DB0744BF30F8153001F889
:102510001530F0BD248802F8024C240A02F8014C60
:10252000013EEDE74FF47A73B0FBF3F04FF0E02398
:102530000022013858619A6105221A617047000033
:10254000014B1860704700BF0C000020154A936DC6
:1025500043F0806393658369012B01BFA2F5863246
:10256000136843F4802313600F4BDB68C3F302232B
:10257000C3F107011A1D042928BF0421062A88BFB8
:10258000DA1E4FF0FF3303FA01F398BF0022DB435A
:1025900093401B01054ADBB282F843330823936062
:1025A000704700BF0010024000ED00E000E100E0D5
:1025B00000F58661D0F8700400F022B900EB4113F9
:1025C00010B5D3F83C22D0F870040C4600F045F961
:1025D000012C04D12046BDE8104000F099BD10BD8B
:1025E00000EB4113D0F87004DA6B00F06CB9D0F84E
:1025F000700400F0EEB910B504460121D0F8700463
:1026000000F0E4F9D4F87004BDE8104000F0B7B968
:1026100070477047364A536843F4806310B553607F
:102620000446344A34480823C0E90023C0F8704403
:1026300000230222C4F89802C0E90223C0E904235F
:10264000C0E906330362FEF767FD18B12B48FE218F
:10265000FEF720FC00221146D4F898021823FFF759
:1026600017F9D4F89802582300228021FFF710F9B7
:10267000D4F89802982300220121FFF709F9D4F831
:102680009802D82300228121FFF702F9D4F898029A
:102690004FF48C7300220421FFF7FAF8D4F8980263
:1026A0004FF4AC7300228621FFF7F2F8D4F89802B9
:1026B0004FF4CC7300228521FFF7EAF8D4F8980292
:1026C0004FF4EC7300228321FFF7E2F8D4F898026C
:1026D0004FF4067300220221FFF7DAF8D4F89802CB
:1026E0004FF4167300228221FFF7D2F8002010BDAC
:1026F0000070004000680040A41C00208C3A0008D4
:1027000008B5D0F89802FEF779FD002008BD10B595
:102710001446D0F898021A462346FEF798FD00208A
:1027200010BD08B5D0F89802FEF7C4FD002008BD22
:1027300008B5D0F89802FFF745F8002008BD08B5A5
:10274000D0F89802FFF772F8002008BD0A06D0F80A
:10275000983245BF01F07F0103EB411303EB4113B6
:1027600093F82A0058BF93F82A02704708B5D0F8AA
:102770009802FEF758FD002008BD08B5D0F8980271
:10278000FEF7D8FD002008BD08B5D0F89802FEF786
:10279000BCFD002008BD08B580B1D0F88C3213B163
:1027A0000023C0F88C3209B1C0F88812012380F8E8
:1027B00074320270FFF72EFF002008BD0220FCE7F4
:1027C00019B1C0F88C12002070470220704708B57C
:1027D000FFF796FF002008BD08B5D0F88C3233B162
:1027E0001B689847003818BF0120400008BD022030
:1027F000FCE708B5D0F88C325B689847002008BD2C
:1028000038B5044600F52075284600F01DFB01236D
:1028100094F88012C4F86C32B4F88632C4F870327E
:1028200001F01F03012B08D0022B0BD07BB92946E6
:10283000204600F019F9002038BD2946204600F056
:1028400055FAF8E72946204600F074FAF3E701F05C
:1028500080012046FFF76CFFEDE770B50446164691
:1028600029BBD0F86C32032B1CD1D0E953539D42C5
:102870000BD9ED1AAB4228BF2B46C0F84C519AB287
:10288000314600F0C7F8002070BDD0F88C321B69CB
:1028900023B190F87422032A00D19847204600F013
:1028A000C1F8F0E7052BEED1FFF742FFEBE7D0F8D8
:1028B0008C329B692BB190F87422032A01D198477E
:1028C000E1E70220E0E7F8B5044613460F46002989
:1028D00049D1D0F86C22022A3AD1D0E90856B54243
:1028E00011D9AD1B19460562AAB200F08BF83B4620
:1028F0001A4619462046FFF747FF94F87832012B15
:102900002DD00020F8BDC369B3FBF6F506FB1535E5
:1029100065B99E420AD8D0F87022934206D22A4660
:1029200000F070F8C4F870522B46E1E7D4F88C320E
:10293000DB682BB194F87422032A01D12046984712
:1029400080212046FFF7F4FE204600F076F8D4E719
:1029500032F00403D1D18021FFF7EAFECDE7002356
:1029600084F87832CDE7D0F88C325B692BB190F8DF
:102970007422032A01D19847C3E70220C2E770B549
:10298000002204461146012540264023FFF7BFFEE2
:1029900033468021C4F84451C4F8506100222046D7
:1029A000FFF7B5FED4F89032A5610021666284F885
:1029B0007452C4F86C126160C4F87C1223B1D4F86C
:1029C0008C3220465B689847002070BD017400205F
:1029D000704708B590F87422032A04D1D0F88C32DD
:1029E000DB6903B19847002008BD10B513460222E9
:1029F000C0E90733C0F86C220A460021FFF7BDFE8C
:102A0000002010BD08B513460A460021FFF7B5FEA9
:102A1000002008BD08B513460A460021FFF7B4FEA2
:102A2000002008BD08B50423C0F86C3200231A4604
:102A30001946FFF7A2FE002008BD08B50523C0F81F
:102A40006C3200231A461946FFF79EFE002008BD8F
:102A500010B580210446FFF76BFE20460021BDE83B
:102A60001040FFF765BE000037B50B7803F0600338
:102A7000202B04460D4606D0402B04D063B12046DF
:102A8000FFF7E6FF05E0D4F88C3229469B68204624
:102A90009847002003B030BD4B78092BEFD801A236
:102AA00052F823F0992C0008CF2C00087F2A000848
:102AB000C12C00087F2A0008BF2B0008CD2A00087F
:102AC0007F2A0008692C0008012C00084B881A0A8C
:102AD000013A062AD3D801A151F822F0F92A0008B8
:102AE0001D2B0008372B00087F2A00087F2A0008CA
:102AF000772B00088B2B0008D0F888321B68207CCD
:102B00000DF106019847BDF80620002A52D0EB8847
:102B1000002B46D12046FFF785FFBAE7027CD0F8AC
:102B20008C3232B99B6A0DF106009847022343703C
:102B3000E9E7DB6AF7E7DBB2052BA0D8DFE803F0B3
:102B400003070B0F1317D0F888325B68D7E7D0F86C
:102B500088329B68D3E7D0F88832DB68CFE7D0F8BB
:102B600088321B69CBE7D0F888325B69C7E7D0F8B9
:102B700088329B69C3E7037C002B80D1D0F88C326C
:102B80000DF106005B6B9847BDE7037C002B7FF4DB
:102B900076AFD0F88C320DF106001B6B98470723F7
:102BA000C5E79A4228BF1A4601462046ADF80620DE
:102BB000FFF71BFFEB88002B7FF46BAFAAE78B8836
:102BC000002B7FF45CAFCB88002B7FF458AF4D888F
:102BD0007F2D3FF654AF90F87432032B3FF44FAF84
:102BE000EDB280F876522946FFF7C0FD2046FFF788
:102BF00019FF1DB1022384F874324AE70123FAE772
:102C00008978394D012929703FF639AF90F874322F
:102C1000022B08D0032B15D0FFF71AFF2978204686
:102C2000FFF7E7FD35E700293FF474AF01210323E7
:102C3000416080F874322046FFF7CEFD02287FF411
:102C400069AF1CE731B9022380F874324160FFF7A5
:102C5000D0FD5FE7416801293FF45CAFC9B2FFF7DF
:102C6000C8FD29786160E6E7CA88012A7FF407AFCA
:102C700090F87432022B0AD8002B3FF400AF0146C3
:102C8000002341F8083F2046FFF7AFFE01E7032B82
:102C90007FF4F5AE011DF6E790F87432013B022B8C
:102CA0003FF6EDAECA88022A7FF4E9AED0F87C3256
:102CB000003B18BF012301465B0041F80C3FE2E7EF
:102CC0004B88012B7FF4E5AEC4F87C3222E790F804
:102CD0007432013B022B3FF6D2AE4B88012B7FF4BE
:102CE000D8AE0023F0E700BF1821002038B50B78DC
:102CF00003F060025B0604460D4601D5402A15D15B
:102D000094F87432013B022B10D82B79012B0DD88B
:102D1000D4F88C3229469B6820469847EB881BB92B
:102D200010B92046FFF77EFE002038BD2046FFF791
:102D30008FFEF9E738B50A7802F06002202A0446CF
:102D40000B4606D0402A04D05AB12046FFF780FE39
:102D500005E0D4F88C22194692682046904700205E
:102D600038BD5A788D880979012A35D0032A21D0B7
:102D7000002AEAD190F87432022B44D0032BE4D11C
:102D800001F00F03142215F0800F02FB030349D05A
:102D90009B69002BD9D001F07F03142503FB055557
:102DA0008029054449D02046FFF7D0FC002849D0AF
:102DB000012343E090F87422022A1BD0032AC4D1D5
:102DC0005A882AB94A0603D0DB880BB9FFF7B0FC52
:102DD0002046FFF727FEC2E790F87422022A09D0A6
:102DE000032AB2D15B88002BB9D14D06F0D0FFF792
:102DF000A6FCEDE74B06A8D0FFF79AFC8021204601
:102E0000FFF796FCABE74A069FD12B064CBF00F1BB
:102E1000140100F5A07100230B6002222046FFF789
:102E2000E4FD9CE7D3F84431002B8ED0142505FB3C
:102E3000010505F5A0750029B5D100232B600222FC
:102E40002946EBE72860FAE70B7803704B7843706C
:102E50004B8843808B888380CB88C380704710B5B4
:102E600080210446FFF764FC20460021BDE81040A5
:102E7000FFF75EBC70B50D461E46044680B1042ABD
:102E80000ED900F0E7FDC2B20132520003233280B6
:102E9000013C6B702A700223002014F8011F01B955
:102EA00070BD5A1CD2B2E9540233A854DBB2F4E725
:102EB000122301480B807047C23A000804230148DE
:102EC0000B807047BE3A000808B504480B46302214
:102ED0000349FFF7CFFF024808BD00BF683A00086A
:102EE0001921002008B504480B4630220349FFF79A
:102EF000C1FF024808BD00BF783A00081921002030
:102F000070B5284A8CB00B4607AC02F11006106869
:102F10005168254603C50832B2422C46F7D11278D3
:102F20002A700020204A8DF8180092F89B108DF826
:102F3000041092F89A1092F8924021448DF80510EE
:102F400092F899108DF8061092F8981092F8904027
:102F500021448DF8071092F897108DF8081092F818
:102F600096208DF8092001A903AC024611F8010B47
:102F70000CAD05EB101500F00F0030306844013245
:102F800015F8145C10F8140C2570062A607004F112
:102F90000204EBD103A805493022FFF76BFF034879
:102FA0000CB070BDA13A00080075FF1F1921002068
:102FB000292303800048704768000020D0F8903231
:102FC00000201873704700000A23038000487047F0
:102FD0005000002037B500220C78ADF80620CA88D2
:102FE000D0F8903202F07F0214F06004CA801DD045
:102FF000202C2ED14A78023A092A2AD8DFE802F09A
:10300000130A2929292929290F058A781A600020FD
:1030100003B030BD01221946FFF7E7FCF7E74A8805
:10302000120A5A60F3E70122191DF5E74C780B2CC0
:103030000FD8DFE804F0060E0E0E0E0E120E0E0E66
:10304000222A90F87432032B03D102220DF10601DB
:10305000E2E7FFF704FF0220DAE74B881B0A222B86
:1030600004D1222A0C4928BF2222D5E7212BF0D1F6
:10307000092A0A4928BF0922CEE790F87422032AB8
:10308000E7D1012203F10801C6E790F87422032A70
:10309000DFD18A789A60BAE72C0000205C0000201B
:1030A00010B581210446FFF73CFB01212046FFF7C4
:1030B00038FB0020E062C4F8580110BD10B5402371
:1030C000044603228121FFF722FB40230322012132
:1030D0002046FFF71CFB0121074BE162C4F85811A1
:1030E000C4F8903200241C73044A05484023FFF7BB
:1030F0004BFB204610BD00BF492100205921002074
:10310000E0000020D0F890320020187370470000D3
:1031100010B50848FDF7C0FE40220021054800F028
:103120006CFCBDE81040034A034840230121FFF72F
:103130002BBB00BF59210020E00000200B4B70B5D5
:103140001E6806F580550C466B882A8859189142EE
:1031500009DC22460146F01800F036FC6B881C445E
:103160006C80002070BD0120FCE700BF9C21002086
:103170002DE9F3410446DFF860801D4618460E46EF
:10318000174600F0F1FBC8F800502578EDB93A4633
:103190003146204600F0C8F884B22846FDF7E8FD25
:1031A000B4F5104F13D1230A01210DF107008DF85A
:1031B0000730FFF7C3FF01210DF107008DF807402D
:1031C000FFF7BCFF02B0BDE8F0814FF4DC44D8F853
:1031D000000000F0C9FBE6E79C21002030B4027932
:1031E00085790B464179120442EA01222A43C11D26
:1031F00030BCFFF7BDBF0000014B186800F0B4BB46
:103200009C210020014B1860704700BF9C210020CA
:1032100007B5084B1868998800909B79ADF80410A1
:10322000684606218DF80630FFF788FF024803B094
:1032300000BD00BFB23A00080090FFFF172908B593
:1032400008DD04220449104400F0AEFBB0FA80F01F
:10325000400908BD0020FCE7B93A00082DE9F04319
:103260001E4695B001238DF803303378103B0024BF
:10327000012B17468DF8024051D82046FDF73CF946
:1032800081462046FDF738F980462046FDF734F99F
:1032900005462046FDF730F94FEA0828040E44EAB7
:1032A000096408F47F082D0A44EA080405F47F4500
:1032B0002C4301210DF103000194FFF73FFF04218E
:1032C0000DEB0100FFF73AFF01210DF10200FFF7BE
:1032D00035FF31463846FDF735F840B28DF802002B
:1032E000C8B1FFF789FF01210DF10300FFF726FFA9
:1032F00004210DEB0100FFF721FF002147220DF112
:10330000090000F07AFB9DF802308DF80830482162
:1033100002A8FFF713FF034815B0BDE8F0834FF094
:103320002064C6E70090FFFF70B54378022B0C467F
:103330001FD1837891F8405004F14106072B2946AC
:10334000304609D1FFF77AFF002846F6851008BFFE
:103350004FF4D54000B270BDFFF770FF80B1334627
:103360002A4604F120012046FFF778FF4FF4104071
:10337000F0E7032B07D14AB9BDE87040FFF748BF1B
:103380004FF4D540E6E74FF4DA40E3E74FF4CE40A0
:10339000E0E70000064A002352F82310814204D0DF
:1033A0000633362BF8D1002070470120704700BF4C
:1033B000D03F0020044A00231380044A1360044ACB
:1033C0001360044A1360704704220020002200208A
:1033D000FC2100200C220020044B188828B1044B4B
:1033E0001B68984214BF012002207047042200206D
:1033F000002200200C4A38B511460023147C5CB929
:1034000018225343CD18C85001232B74FDF730FC0C
:10341000C5E90204204638BD0133092B02F1180228
:10342000ECD14FF0FF30F6E7D03F00200C4A38B522
:103430000023182505FB03F18C185158814208D14F
:10344000FDF716FC00230122C4E90203227418468A
:1034500038BD0133092BEDD14FF0FF30F8E700BF45
:10346000D03F00202DE9F84304460D4649B18E189F
:1034700004274FF005084FF00709B5421FD1BDE8FA
:10348000F883C06800280CD0F9DD1534C0F1400283
:103490000021204400F0B1FA2046BDE8F843FDF7D2
:1034A000D5BC2369002BEAD16368C4F815302378B2
:1034B0006376238907205BBA6383E060E5E7D4E99C
:1034C00003235AB96268C4F81520E760C3B92278AB
:1034D00062762289C4F80C9052BA6283E268511C69
:1034E000E160224415F8010B507501334029236136
:1034F000C3D104F11500FDF7A9FC0023E360BCE78C
:10350000227D6276511C2175C4F80C80E6E710B567
:1035100098B004468DF807105822002102A800F048
:103520006CFABF2301220DF1070102A88DF80830C3
:10353000ADF810200394FFF795FF0022114602A872
:10354000FFF790FF18B010BD084A30B500231824CB
:1035500004FB03F18D185158814202D100232B74D2
:1035600030BD0133092BF3D1FAE700BFD03F002073
:10357000FFF720BF2DE9F0410025134CDFF84C8008
:103580002E4640F2EE27237CB3B1FDF771FBD4E960
:103590000223801A63EB4303B84273F100030BD399
:1035A00020680521FFF7B3FF2268D8F800302674A1
:1035B0009A4201D1FFF7FEFE06353C2D04F11804B6
:1035C000E1D1BDE8F08100BFD03F00200C220020F7
:1035D00000B599B058228DF80700002102A800F02C
:1035E0000CFA0A4B1B6803930122BB230DF1070160
:1035F00002A88DF80830ADF81020FFF733FF002245
:10360000114602A8FFF72EFF19B000BD0C220020C2
:10361000F7B51446064608460D4600F0A5F923788E
:10362000D32B24D0E12B25D0D02B30D12846FFF747
:10363000E9FD304605F580561649FCF783FE738890
:103640008DF807000133012223810DF10701204687
:10365000FFF708FF728829462046FFF703FF002284
:1036600011462046FFF7FEFE012003B0F0BDFDF736
:10367000A9FBF9E7074D04270523002627812B70B6
:103680006E70AE70FDF7C2FB3A46E870E3E70020CB
:10369000EBE700BF102200202DE9F0430679056812
:1036A000ADF5805D862E87B004467BD1B0F805303D
:1036B000B3F5006F03D000270324032650E0002D4C
:1036C00000F0E980FFF754FFD0F80080B8F1FF3F29
:1036D00011D19C4A1368D91CC3F1000698BF00267B
:1036E00001331E4430461660FFF784FE01300FD1CF
:1036F00000270624E1E74046FFF74CFE20B1404694
:10370000FFF794FE4646F1E74046FFF773FEF9E700
:103710005822002105A800F070F9D4F80700D4F869
:103720000B10CDF8188086238DF814306B4603C338
:103730000223112203936946052305A8ADF81C2036
:103740008DF810300296FFF78DFE002205A8114675
:10375000FFF788FE3046FFF7F7FE00273C460426B9
:10376000DFF8FC8158220021404600F046F9042E83
:10377000C8F8045088F800400DD0032E40F08E8029
:103780002846FFF7E1FE042C01D1FFF713FE214686
:103790002846FFF7BCFE002420460DF5805D07B0EB
:1037A000BDE8F0836A1C76D02846FFF7F3FD38B9F0
:1037B000330605D5FFF710FE10B92846FFF71AFEAD
:1037C00026683046FFF7E6FD217994F904200028A9
:1037D00055D0FFF701FE012808D15B4B1B689E42C4
:1037E0004DD1002A29DA0027042466E7002A22DACC
:1037F000B4F805305BBA9AB241F6B95082423FF64E
:103800005AAF52480380524B524819604E4B392AE6
:103810001E60514B28BF39221A60504B4FF0FF31C8
:103820001960E11D00F0D0F82068FFF7FFFD50B3EC
:10383000012000F0A7F800288FD0434B1B689E4260
:103840008BD1424B454AB3F800801368424F013395
:103850008B423E681360C6D13E48A8EB06023B2A65
:10386000304404F1050104DC00F0AEF8C7F8008034
:10387000DAE73B223B3600F0A7F83E60D4E7002AA7
:10388000BFF66BAF34E7314B1F88314B1C78FFF725
:10389000A3FD064664E700270B240EE7012E02D1A4
:1038A000FDF7E6F977E7882C15D00ED8832C22D0C7
:1038B000862CBDD02A4A05A93846FFF7A9FE30B9A3
:1038C00001212846FFF723FE0AE0912CF2D1254B77
:1038D00000221A7004E0002211464046FFF7C2FDA4
:1038E0002846FFF731FEFFF765FD1E4B1B78002BC6
:1038F0007FF451AF50E70FB9032149E7194F3E78E4
:103900000EB1062144E7012305A80DF118093B700B
:1039100000F02AF80F4805A9FFF760FCB9F8FE2F60
:10392000A8F8082005A94046C8F8045088F80040C7
:10393000FFF798FD324631464046FFF793FD3E7053
:10394000CEE700BFCC0000200C2200200422002083
:10395000082200201022002000220020FC2100204C
:10396000A4210020A021002010B5044641F2040249
:10397000002104F5805400F040F84FF48053238078
:1039800010BD000008B5064B044613B10021AFF38B
:103990000080044B1B6803B19847204600F062F892
:1039A00000000000C040002010B5013902449042E0
:1039B00001D1002005E0037811F8014FA34201D0A6
:1039C000181B10BD0130F2E7884210B501EB02046C
:1039D00002D98442234607D8431EA14207D011F8DA
:1039E000012B03F8012FF8E70244824200D110BDF9
:1039F00013F8011D02F8011DF7E702440346934244
:103A000000D1704703F8011BF9E7000070B50D4BBA
:103A10000D4D5B1B9C100026A64209D100F05AF800
:103A20000A4D0B4B5B1B9C100026A64205D170BDB6
:103A300055F8043B98470136EEE755F8043B9847A4
:103A40000136F2E700000000000000000000000066
:103A500000000000034613F8012B002AFBD1181ABE
:103A600001387047FEE700BF3246414B20426F6F7E
:103A7000746C6F61646572004E6974726F6B657906
:103A8000007372632F696E69742E63006C69622F14
:103A9000757362642F757362645F636F6E662E6305
:103AA00000303132333435363738394142434445BA
:103AB00046005532465F5632008C2790F6000403CC
:103AC00009041201000200000040A020B1420001E0
:103AD00001020301F8B500BFF8BC08BC9E46704760
:103AE000F8B500BF70FFFF7F01000000E803000091
:103AF00013000000AB0D000800093D00B12E0008C6
:103B0000BD2E0008E52E0008C92E0008012F000870
:103B1000000000000000000006D0F10901A1010929
:103B200020150026FF007508954081020921150027
:103B300026FF00750895409102C000000A060002A9
:103B400000000040010000000921110000012222B4
:103B50000000000009022900010100803209040070
:103B600000020300000209211101000122220007C6
:103B70000581034000050705010340000500000022
:103B8000BD300008A1300008D52F0008000000005B
:103B900000000000BD2F00080531000800000000F3
:103BA0000000000000000000B12F0008B12F000845
:0C3BB000B12F0008C92F00080100000020
:1050000000C0002099730008E9730008E9730008E4
:10501000E9730008E9730008E97300080000000064
:10502000000000000000000000000000E97300081C
:10503000E973000800000000E9730008E973000844
:10504000E9730008E9730008E9730008E9730008D0
:10505000E9730008E9730008FD5B0008E9730008C4
:10506000E9730008E9730008E9730008E9730008B0
:10507000E9730008E9730008E9730008E9730008A0
:10508000E9730008E9730008E9730008E973000890
:10509000E9730008E9730008E9730008E973000880
:1050A000E9730008E9730008E9730008E973000870
:1050B000E97300080000000000000000E973000828
:1050C000E97300080000000000000000E973000818
:1050D00000000000E9730008E97300080000000008
:1050E000E9730008E97300080000000000000000F8
:1050F00000000000000000000000000000000000B0
:10510000000000000000000000000000E97300083B
:105110000000000000000000415C0008E973000886
:10512000E9730008E9730008E9730008E9730008EF
:10513000E97300080000000000000000000000000B
:10514000E9730008E9730008E9730008D95B0008F7
:10515000E9730008E9730008E9730008E9730008BF
:10516000E9730008E9730008E97300080000000013
:10517000E9730008E9730008000000000000000067
:10518000E9730008E9730008E973000800000000F3
:1051900010B590B000F04CFE4022002168460CF0A3
:1051A00016FA002400F01EFD001B962804D900F01A
:1051B0001EFF00F017FD044600F0E2FF684600F015
:1051C000DBFE002807DD684605F07AFB402200215F
:1051D00068460CF0FCF905F0B5FAE3E7024BD86835
:1051E000C0F30220704700BF00ED00E0034AD2F890
:1051F000943043F00103C2F894307047001002402D
:10520000024BD3F89400C0F34000704700100240F6
:10521000024A136843F00103136070470010024014
:10522000024B1868C0F34000704700BF00100240F6
:10523000024A136843F008031360704700100240ED
:10524000034A136823F0F00303431360704700BF61
:1052500000100240034A936823F003030343936062
:10526000704700BF00100240034A936823F4605364
:1052700003439360704700BF00100240044AD2F815
:10528000883023F040630343C2F88830704700BF82
:1052900000100240034A136823F00703034313601E
:1052A000704700BF00200240034A136823F4C06324
:1052B00003431360704700BF00700040054BDA6C79
:1052C000024382B0DA64DB6C03400193019B02B0BD
:1052D000704700BF00100240054B9A6D024382B038
:1052E0009A659B6D03400193019B02B0704700BF1C
:1052F00000100240054B1A6E024382B01A661B6E04
:1053000003400193019B02B0704700BF00100240B0
:105310004FF0E022136943F004031361704700006B
:10532000034AD2F8883023F00303C2F8883070476C
:1053300000100240024A936823F4E06393607047D0
:1053400000100240024A936823F0F0039360704714
:1053500000100240024A536823F47F4353607047B1
:105360000010024038B5414CA36D43F08053A36553
:105370000220FFF78FFF3E4B1B6803F007038342B9
:1053800003D03C48AE2101F019F84FF40070FFF74C
:105390008BFFD4F8983043F00103C4F89830D4F868
:1053A00098309B07FBD5FFF721FFFFF729FF012866
:1053B000FBD1FFF72DFFFFF733FF0128FBD1B02012
:1053C000FFF736FFFFF73CFF0020FFF7C3FFFFF7B3
:1053D00041FFA56815F00C05FBD14FF46050FFF7B5
:1053E000B1FFFFF7A7FFFFF73FFF234803F02CFAB9
:1053F0002148FFF78DFF03F035FA2846FFF790FFAD
:10540000FFF73CFF4FF08070FFF766FFA36B03438D
:10541000A363A36B23F08073A363184B5A6822F035
:10542000E0625A605A6822F000425A605A6822F0DC
:10543000405242F000525A605A686FF30F0242F431
:105440003B4242F07F025A605A6822F47F0242F4E3
:1054500008125A601A6822F47C5242F400521A6010
:10546000FFF7BCFE064B83F8235038BD0010024006
:105470000020024020240108006CDC020060004093
:1054800000ED00E026498B6D43F0805310B54FF4DA
:1054900080608B65FFF708FFFFF7A8FEFFF7B0FEFF
:1054A0000128FBD1FFF7B4FEFFF7BAFE0128FBD1BC
:1054B0008020FFF7BDFEFFF7C3FE0020FFF74AFF85
:1054C000FFF7C8FE8C6814F00C04FBD14FF4405079
:1054D000FFF738FFFFF72EFFFFF7C6FE114803F076
:1054E000B3F91048FFF714FF03F0BCF94FF0406028
:1054F000FFF716FFFFF7C2FEFFF770FE0A4B2046CC
:1055000083F82340FFF7C6FE084B1B685B0706D0F5
:10551000BDE81040064840F2AD1100F04FBF10BD8D
:10552000001002400024F40000ED00E000200240E2
:105530002024010838B5264DAB6D43F08053AB6590
:105540000120FFF7A7FE234B1B6803F007038342EC
:1055500004D0214840F2BD1100F030FF4FF48060CC
:10556000FFF7A2FEFFF742FEFFF74AFE0128FBD13C
:10557000FFF74EFEFFF754FE0128FBD19020FFF706
:1055800057FEFFF75DFE0020FFF7E4FEFFF762FE27
:10559000AC6814F00C04FBD14FF44050FFF7D2FE7E
:1055A000FFF7C8FEFFF760FE0C4803F04DF90B480B
:1055B000FFF7AEFE03F056F94FF04060FFF7B0FE84
:1055C000FFF75CFEFFF70AFE054B83F8234038BD6A
:1055D00000100240002002402024010800366E0125
:1055E00000ED00E0012804D0022804D028B9FFF71C
:1055F00049BFFFF79FBFFFF7B5BE7047144A154973
:10560000154808B5536843F48063536002F5D032FF
:10561000936D43F080639365104A03F0ABFB104B2E
:1056200010490120002218618861022098604A60B8
:1056300088600D490D485A6003F0D1FC0C490B48B5
:1056400003F0E2FCBDE80840084803F0E4BC00BFFA
:1056500000700040C40100108C01001060000010B8
:1056600080280020C0280020080100100000002031
:10567000A4000010F0B54FF0804495B00025012043
:10568000FFF72AFE4FF47A77256101A92046CDE97C
:105690000375ADF80450029502F070FB236843F0E7
:1056A00080032360A36823F4A03323F007030126BB
:1056B000A3600CAA602310212046CDE90C36CDE969
:1056C0000E67109502F08EFBA36923F48063A3613B
:1056D0000CAA4FF480712046CDE90D6602F082FBE2
:1056E000E36923F00403E3610CAA4FF480512046E0
:1056F000CDE90D6602F076FBE36923F48063E36194
:10570000A36823F00803A360A36823F48043A36085
:10571000A36823F43F43A360636823F070036360CE
:10572000A36823F08003A3600E22022306A94FF092
:105730009040CDE90623CDE90855CDE90A5602F09F
:105740007BFA23683343236015B0F0BD7FB5012099
:105750004FF09044FFF7B2FD0220FFF7AFFD216844
:10576000012393FAA3F2B2FA82F29A40032000FADC
:1057700002F221EA020293FAA3F12260E56893FAA9
:10578000A3F1B1FA81F193FAA3F29940B2FA82F24D
:1057900000FA01F19A4025EA010103FA02F20A43F4
:1057A000E260254A0821166891FAA1F5B5FA85F557
:1057B00091FAA1F49D40B4FA84F400FA05F59C40F6
:1057C00026EA050503FA04F42C431460546824F017
:1057D00008045460956891FAA1F4B4FA84F49C40EA
:1057E00000FA04F425EA040491FAA1F59460D5685E
:1057F00091FAA1F4B4FA84F49C40A04025EA000098
:1058000091FAA1F4D06091620C498A680F2022F0CD
:105810000F0290FAA0F08A6001A800220193029280
:10582000ADF80C308DF80E3003F050F8044B4022E8
:105830001A6004B070BD00BF0004004800000140C1
:1058400000E100E030B5014687B01020174CFFF7AB
:1058500043FD4BF6803245F6C053002908BF13467E
:10586000ADF8043000255A2301A92046CDE90253A2
:1058700002F084FA236823F080032360636823F036
:1058800070036360A36823F08003A360E36843F0C0
:105890000103E360236843F001032360256162B6DE
:1058A000034B4FF480025A6007B030BD0010004037
:1058B00000E100E008B54FF48020FFF7FFFC034A49
:1058C000136843F00403136008BD00BF00080650CE
:1058D00010B54FF4805090B0FFF70CFDE02202238A
:1058E0000024CDE900230323CDE9023469460523D2
:1058F0004FF090400494059302F09EF94FF48271AA
:105900004FF4E063CDE9071301204FF40073CDE9B4
:105910000A031023CDE90C34069409940E94064C26
:10592000072306A920460F9302F0A2FF636823F025
:105930001003636010B010BD0030014010B5044684
:105940000120FFF7D7FC4FF08050FFF7C5FC1F4A3E
:10595000D36823F4E0631B041B0C43F0BF6343F4E0
:105960000133D3600021FFF739FC1176FFF736FCD5
:105970005176FFF733FC9176FFF730FCD177FFF7D4
:105980002DFC82F82010FFF729FC82F82210FFF787
:1059900025FC82F82310FFF7D9FE94B14FF4806004
:1059A000FFF782FCFFF76EFD4FF48060FFF77CFC91
:1059B0002046FFF747FFFFF77DFFBDE81040FFF7E8
:1059C00087BFFFF7CFFCFFF755FEF1E700ED00E0E2
:1059D000044B5A69002ABFBF034A9A6002F1883219
:1059E0009A607047002002402301674508B50028EF
:1059F00029D100F0E5F91549154B002808BF1946D3
:105A00001448036A21F0E0618B421BD072B603692F
:105A1000DA03FCD4FFF7DCFF43695B0041BF0E4BA8
:105A2000C36003F14433C3600A4B19625A6942F4FC
:105A300000325A611A69D203FCD45A6942F000421A
:105A40005A6162B608BD0549DAE700BFCCF8FFFF2E
:105A5000AAF8FFFF002002403B2A1908AAF8FFF726
:105A600008B572B610490B69DB03FCD4FFF7B0FF31
:105A70000B690B614B696FF30A034B614B6943EA96
:105A8000C00040F0020048614B6943F480334B6131
:105A9000054B1A69D203FCD41A695A6922F007022D
:105AA0005A6162B608BD00BF0020024010B572B650
:105AB0000B490C69E403FCD40C690C614C6944F09B
:105AC00001044C61026043600B69DB03FCD40B6989
:105AD00001230B614B6923F001034B6162B610BDDA
:105AE000002002402DE9F7431546164A1369DB03EF
:105AF000FCD4FFF76DFF20F007002C4646194F1924
:105B0000E8462B1B9D42A6EB040902D803B0BDE872
:105B1000F083082C2246A7EB040128BF0822404648
:105B20000BF03CFD072C06D8C4F10802FF2108EB5E
:105B300004000BF04CFDDDE900234846FFF7B6FFFB
:105B4000083CDEE700200240F7B5114C00230E1898
:105B5000071D8B4201D303B0F0BD6268D207FCD5AC
:105B6000A2680192626812F0660F02D001200BF069
:105B700059FA01AD1A1807EB030CB242EBD015F835
:105B800001EB02F801EB6245F7D10433E1E700BF16
:105B90000008065030F07F43034B4FF0080214BF5B
:105BA0009A619A62704700BF000400484FF090432A
:105BB0001869C04300F0010070470000014B1870E5
:105BC000704700BFE102002008B504F025F9BDE8E8
:105BD000084004F041B80000014801F053BD00BF87
:105BE00010290020034B044A5B6A12685A2000FB0C
:105BF0000230704700100040F802002008B50B4B3F
:105C00005A695A610A4B1A680A4B9A420DD10A49DD
:105C1000FFF7E8FF0B68C01A192803D9FFF7E2FF66
:105C2000064B1860FFF7DEFF086008BD0004014066
:105C300000000010AD5B0008F0020020F40200201C
:105C400038B5234B234C00221A61234A13680133D1
:105C50001360FFF7C7FF2368C01A5A280AD91F4BE1
:105C6000186838B140B204F09BFD72B6FFF7BAFF76
:105C7000206062B61A4B1A681A4B9A421CD1002057
:105C800001F02EFB00BB012001F02AFB011E18BF12
:105C90000121154DFFF7A6FF2B68C01A19280BD953
:105CA000124C237823B919B1FFF79CFF104B1860F1
:105CB000FFF798FF217028600E4B1B68012B05D160
:105CC000BDE8384000F0E4BC0121E2E738BD00BF88
:105CD00000100040E8020020F8020020EC02002042
:105CE00000000010415D0008F0020020E0020020EA
:105CF000F4020020E402002038B5044672B6FFF733
:105D000071FF064B186062B6054D2CB12B68A3429B
:105D100002D060B204F044FD2C6038BDE8020020DF
:105D2000EC02002038B50446FFF75CFF0546FFF79C
:105D300059FF431BA34200D338BDFFF745FFF6E7E9
:105D400008B5002001F0CCFA68B15F20FFF7EAFF48
:105D5000002001F0C5FA60B9012001F0C1FA003855
:105D600018BF012004E0012001F0BAFA0028ECD1AC
:105D700008BD0120FCE70000BFF34F8F0549064B2B
:105D8000CA6802F4E0621343CB60BFF34F8F00BFD9
:105D9000FDE700BF00ED00E00400FA0508B501F0E2
:105DA000B5FA28B101F04AFA024B034A136008BD64
:105DB000024BFAE7415D000800000010AD5B0008EF
:105DC000044BD3E90802044B9A420CBFC0F34000D5
:105DD0000020704700880308791E55AA10B5ADF55C
:105DE000006D0B494FF4006268460BF0D7FB089B2F
:105DF000712043F002030893FFF732FE04484FF48A
:105E000000626946FFF76EFE0DF5006D10BD00BF24
:105E100000880308014B1868704700BFE4020020A7
:105E2000024B1B780BB9FFF7E9BB7047E202002079
:105E300070B5012088B0FFF781FD01F067FA3E4C94
:105E400010B901F08BF8206023683C4C012B41D144
:105E500023703B4B3B4A1A60FFF7E2FF04F070FCF3
:105E600006F0FEFE384B5A6A384B9A423AD0384B0D
:105E70001B6ADBB2AA2B41D12BA5D5E900453249DB
:105E8000202268460BF08AFB7120FFF7E9FD3148BC
:105E9000202269460BF072FB28B12F482022694668
:105EA0000BF06CFB70BB2D4B2D481E880023324637
:105EB000FFF7FCFD2B492C483246FFF713FE25491E
:105EC00020222148FFF70EFE284822462B46FFF7E6
:105ED000EDFD0DE00020FFF731FD00232370FFF7FB
:105EE0005DFFB9E700F0B6FA214B1B888342BED1B3
:105EF000002008B0BDE87040FFF778BD0CA5D5E9DB
:105F00000045BCE71A4B16481E8800233246FFF7AF
:105F1000CDFD184914483246FFF7E4FD20226946BA
:105F2000CFE700BFAFF3008000000000791E55AA44
:105F300002000000791E55AAE4020020E2020020BF
:105F400000000010AD5B000800880308791E55AA08
:105F5000002002400400001024000010942A0108D0
:105F600028880308982A0108308803082088030835
:105F7000962A01080F2D010810B5044600F060FABA
:105F800018B1204600F03CFA402010BD08B5094881
:105F9000402200210BF01BFB0648FFF7EDFF38B154
:105FA000044804F08DFC91284FF0FF3018BF00200A
:105FB00008BD00BF9C0200200246074907488388AD
:105FC00003F03003302B04D005484023812102F038
:105FD000F2BF0139F3D17047410D03000068004062
:105FE000000000204FF443710A2003F001BE704707
:105FF00010B504467F20FFF733FD2146D022064826
:10600000FFF770FD7E20FFF72BFD21460348BDE81A
:106010001040D022FFF766BD00F8030800F0030827
:106020001FB504460E49D0220BF0B8FA2378A52BF1
:1060300002D1012004B010BD0A49102268460BF0BD
:10604000ADFA9DF80030A52B08D10649D022204694
:106050000BF0A4FA2046FFF7CBFFEAE70020E9E7C0
:1060600000F8030800F003087FB5424D2B685A1C66
:10607000044635D002930023039344B9012101A8BB
:10608000FFF762FD9DF8044004F00F040134002284
:106090001546AB0003F1006303F57A3331461E6801
:1060A000731C28D102B10391DDE902325ABB1B02F5
:1060B00001337D200393FFF7D3FC042203A92E486C
:1060C000FFF710FD029B7C2001330293FFF7C8FC11
:1060D0002848042202A9FFF705FD039804B070BD0B
:1060E00001237C200293FFF7BBFC042202A928466F
:1060F000FFF7F8FCBFE70235B5F5007F4FF001026E
:10610000C7D10396D0E7B4F5807F98BFA418B3EB4E
:10611000142F03944FEA142208D27C200292FFF736
:106120009FFC1448042202A9FFF7DCFCB5F5007FB0
:106130000FD1039B1B0A01337C200293FFF790FCD5
:106140000C48042202A9FFF7CDFC7D20FFF788FC54
:10615000002505F1007000F57A400422800003A9B3
:10616000FFF7C0FC054B03981A68904200D1FEE788
:106170001860B3E700E0030800E80308DC02002031
:1061800008B5044B1B680BB100F098FEBDE8084051
:10619000FFF71ABDE40200204FF0904310B51B69D1
:1061A000DB4303F001030370044603F0B7FC6070A7
:1061B00003F0D4FDA07003F0DFFDE07003F00EFDEE
:1061C000C82363710523A37164232071E371002048
:1061D00010BD08B50146FFF705FD084408BD0000E5
:1061E00038B51A4B1B68012B04460D4618D0184BC6
:1061F0001B7843BB012003F029FD2046FFF7E9FF90
:106200000446FFF7EFFCA04206D303F0E1FC0020B8
:1062100003F01CFD002004E0A84718B903F016FDA8
:10622000012038BDFFF7B2FE38B103F0D1FC0020E9
:1062300003F00CFD4FF0FF30F3E7FFF7C5FC012042
:10624000FFF770FDDDE70220EBE700BFE40200206E
:10625000E10200200149FFF7C3BF00BFED9F000826
:1062600010B504464FF47F0003F082FC0449204639
:10627000FFF7B6FF044603F081FC204610BD00BFC7
:10628000F39F000810B50446054803F071FC05496A
:106290002046FFF7A5FF044603F070FC204610BD22
:1062A00000FFFF00F39F000808B5FFF74DFC012039
:1062B00008BD10B5722420460134E4B2FFF7D0FBCC
:1062C0007C2CF8D110BD322070470346312B084694
:1062D0000FD80522B3FBF2F202F5803102EB820205
:1062E0009B1A40F299127231534303EBC1210BF018
:1062F00055B970472DE9F0413128ADF5006D0546DF
:10630000884622D80524B0FBF4F404F580307230BE
:10631000C6024FF40062314668460BF02EFA04EBD9
:10632000840340F29912E81A6F46414602FB00705E
:106330000BF023FA04F17200C0B2FFF791FB4FF4A7
:10634000006269463046FFF7CDFB0DF5006DBDE8F4
:10635000F081FFF7CFBF10B5E8B0044640F29912C4
:10636000FF2101A80BF033F901A92046FFF7C2FF76
:1063700068B010BD0A4B4CF6CC421A6045F255523B
:106380001A6000225A6040F6FF721A614FF4FA62F6
:106390009A60DA685207FCD14AF6AA221A6070475E
:1063A00000300040044B03F1100253F8041B40F886
:1063B000041B9342F9D17047842A0108FEE70000CC
:1063C000F8B50C4E3568632D014610DC0A4F0B48BA
:1063D0003C68402200EB841001340BF0DFF8642CA1
:1063E000A8BF002401353C6035600020F8BD4FF0A7
:1063F000FF30FBE7FC1B0020041C0020FC020020F7
:1064000010B50C4C0C4B2168402203EB81110BF0B2
:10641000C5F80A490A68002A09DD23680133642B9C
:10642000A8BF0023013A23600A60002010BD4FF08E
:10643000FF30FBE7001C0020FC020020FC1B0020BA
:10644000014B1868704700BFFC1B002000487047D4
:1064500000880308014B188D704700BF00880308AF
:10646000024B03491A8D0BF099B800BF008803084E
:1064700030880308034610F0040F14BF02200120E7
:106480001B0748BF01307047044B00221A809A70E6
:10649000202203F8012C01225A707047142000209A
:1064A00038B50F4D2B789B07044605D50A2000F020
:1064B0008DFD2870012038BDFFF794FB0444FFF7E1
:1064C00091FB844201D80020F5E70A2000F07EFD10
:1064D00010F0060F2870EDD10120FFF723FCEEE746
:1064E000122000202DE9F0471E46002388B03360BB
:1064F000074688469146FFF775FBDFF864A007441E
:10650000FFF770FB874201D8002021E09AF8005085
:106510006A0705D40A2000F059FD05468AF80000F4
:106520000C2000F053FD43B2002B14DD6B0712D595
:1065300000F01F042146684600F078FD4C452246D5
:10654000A8BF4A463260694640460BF016F9012062
:1065500008B0BDE8F0870120FFF7E4FBD0E700BFFB
:106560001220002038B50D460446042000F0C8FD76
:10657000202D2946204628BF202100F06DFDBDE8D2
:106580003840082000F0BCBD2DE9F0411D2A88B03C
:1065900014461E4629D8164B1B788DF8013000F0A2
:1065A0000F0500238DF800508DF80230FFF762FFD1
:1065B000E84605461AB111B168440BF0DEF86219DD
:1065C00002F1200302340DEB03022919330A40467D
:1065D000C9B202F8203C02F81F6CFFF7C3FF01208C
:1065E000FFF75EFF08B0BDE8F0810020FAE700BFCA
:1065F0001720002000220B461146FFF7C5BFB1F55A
:10660000807F28BF00216123037041707047000024
:10661000034A00231370034A1370034A1360704740
:1066200011200020102000200C20002070B5164EF4
:1066300034788AB034BB154D2B7863B94FF4F973B5
:10664000022102A80124ADF80830FFF78BFF2C705F
:1066500020460AB070BD01AB202202A9FFF742FF1D
:1066600010B901233370F3E7019B022BF9D19DF898
:106670000830F22BF5D19DF80930012BF1D12C70A7
:106680000446E5E70024E3E7102000201120002065
:1066900038B5084D2C685CB1FFF7A4FA04F5967480
:1066A000844205D80A20FFF7C1FFFFF79BFA286054
:1066B00038BD00BF0C2000201FB500F00F010009FD
:1066C00028D001280CBF18222022144B59701A70B0
:1066D00042F20E23ADF80030C0238DF80230104B8B
:1066E0001A68CDF803205A68CDF8072068461A8941
:1066F0009B7AADF80B200E218DF80D30FFF732FF9D
:106700000A20FFF7CDFE38B9022000F0F9FC012085
:1067100005B000BD1022D8E70020F9E713200020C3
:106720002B24010830B589B0044620220D46684666
:1067300000210AF04CFF0F4A2046FFF79BFE93789A
:10674000B3FA83F35B0904F00F04937064F05F0302
:106750008DF80030084B1B788DF8013001461DB9CB
:1067600064F04F048DF800406846FFF7FBFE09B067
:1067700030BD00BF13200020172000202DE9F04F6E
:1067800097B000F00F07FFF775FE1F2ADFF814A17E
:106790008846144605460DF134091CDC9AF8006061
:1067A0002022002148460AF012FF8DF834708DF83F
:1067B000356044B1B8F1000F05D02246414609EBDF
:1067C00005000AF0DAFF2919C9B24846FFF7CAFEE8
:1067D00017B0BDE8F08FC0F120030026019309EB4C
:1067E0000003B3460293019B02988DF83470A21BFC
:1067F0009A42A8BF1A4608EB06019AF800308DF8B5
:10680000353003928DF836B00AF0B7FF039A16447C
:10681000A642B8BF9DF8343005EB0201B8BF43F083
:1068200010034846C9B2B8BF8DF83430FFF79AFE5E
:106830000520FFF735FE0028CAD09DF83430DB066E
:106840002AD52022002105A80AF0C1FE202204AB8F
:1068500005A96420FFF746FE9DF814200028B7D054
:1068600002F0E003A02BB3D19007B1D5D10604D537
:1068700001211046FFF756FFAAE71046FFF7FAFD81
:10688000049B9842A4D19DF834305340DB0703D4D5
:1068900002F0F602A22A9BD0A64287F00107A2DBF3
:1068A00096E700BF17200020F8B5154F06460020D8
:1068B000386014480124FF2A0D46047000DD2BB116
:1068C00029463046BDE8F840FFF758BFA2F1FD0465
:1068D0000D483C60FD220AF061FE0C482146FFF79E
:1068E0008EFEFF22A0F1FD013046FFF747FF3A6818
:1068F000054805F1FD01BDE8F8400AF04FBE00BFB4
:106900001C20002018200020202000201D21002015
:1069100010B40C469C4211460FDC127802F0F002D3
:10692000A02A06D1042C06DD22465DF8044B0AF0AD
:1069300025BE9C42F8D00B2000E00A205DF8044BF5
:106940007047000038B5144A082304460D46FFF787
:10695000DFFF18B90520114BD87038BD104A072346
:1069600029462046FFF7D4FF08B90120F3E70D4A76
:10697000022329462046FFF7CBFF08B90320EAE7A8
:10698000094A022329462046FFF7C2FF08B904201E
:10699000E1E70020E1E700BF952F01081320002068
:1069A0009E2F0108372401083A2401082DE9F043FD
:1069B0001378ADF5805D13F07F0883B005460E4671
:1069C000144608D04FF4DC410DF5805D03B0BDE8FE
:1069D000F043FFF70FBE5378A42B76D016D8032BC5
:1069E00000F08D8008D8012B00F09780022B00F07A
:1069F000C0804FF4DA4124E0102BFAD1974BDB78BA
:106A0000052B00F0CB804FF4DA41DDE7C02B12D02C
:106A1000EE2B00F00B81B02BEBD1904BD2F80A207B
:106A2000DB78032B92B200F0E480042B00F0F480BA
:106A300046F68221C8E793780BB9D3781BB146F6A6
:106A400086212846C0E7D2F80A60DFF8289236F49B
:106A50008073D9F8004008D0A64206D9FF2C00F276
:106A6000978004F5CE4189B2EBE70DF10408FF22CF
:106A7000002140460AF0ABFD002E08BFFD26A642CD
:106A8000374628BF274676493A4640460AF075FE03
:106A9000A64218D2E11B08EB0700FFF7B0FD022267
:106AA0003A4441462846FFF769FED9F800206C4871
:106AB000D21BC119C9F800200DF5805D03B0BDE8F7
:106AC000F0430AF06BBD0022EAE79188D2F8060095
:106AD000FFF738FF05280BD162494FF41043062217
:106AE00028460DF5805D03B0BDE8F043FFF74CBDCF
:106AF00010B14FF41041A4E746F68221A1E7574BAD
:106B0000DB78052B7FF475AF9288D4F8061002AFBE
:106B100001AB304603F000FD1FE0504BDB78052B46
:106B20007FF467AF9388402B02D04FF4CE414BE700
:106B3000FFF770F9012801D1FEF754FDA288D4F8BF
:106B4000061001AB304603F0E7FCFFF763F90128BC
:106B500002AF02D10020FEF745FDA37BB7F8FE2F60
:106B600001A92846FFF7A0FE0DF5805D03B0BDE842
:106B7000F0833A4BD87805287FF43BAFD4F8061061
:106B8000928891F8403041339A4204D0FFF7CAF816
:106B90004FF4CE4155E702AF01ABBAE70120FFF752
:106BA0000DF801A806F04EF8A188D4F8060001AA55
:106BB00006F0A2FC0746404602AEFEF7FFFFB7B95B
:106BC000B6F8FE2F01A9F01E0AF0E8FCB6F8FE2F79
:106BD000033292B2A6F8FE2F06F8047C16449023E6
:106BE00006F8063C002306F8053CA37BB8E7032221
:106BF000F0E7531E9BB20F2B28BF0F221A494FF408
:106C00001043D2B2FFF7C0FC0A200DF5805D03B03F
:106C1000BDE8F043FFF744BC531E9BB2142B28BFC2
:106C2000142212494FF41043D2B2EBE79288042A9F
:106C30007FF4DFAE0E49D4F806000AF09FFC00286E
:106C40007FF4D7AE4FF410412846FFF7D3FC142051
:106C5000FFF768F8FFF790F8FEE700BF1320002069
:106C6000202000203D240108862F01084400001048
:106C7000442401081C2000202DE9F0432C4D85B050
:106C800004460078FFF7F6FB2B780E46074643B123
:106C9000431CDBB2E35CC02B1FBF264A00231360FA
:106CA0002B7004EB0708F11B6A46404603F0A4F979
:106CB000014628B12078FFF79DFC05B0BDE8F083C0
:106CC0002B787BBBE35DDFF86C90DB06D9F80050D6
:106CD00015D52E44B6F5006F02D94FF4CE41E9E741
:106CE000BDF804601448DDF80610324628442E44EE
:106CF0000AF054FCC9F800604FF41041DAE78DB196
:106D0000DDF80610BDF8042048190AF047FC2A46B1
:106D10000949DDF806000AF041FCBDF804301D44C5
:106D2000ADF8045020786A464146FFF73FFEC4E7BD
:106D3000182000201C20002020200020034B0448A5
:106D400000214FF4806219600AF041BC081C002049
:106D50000C1C00202DE9F84306460C46002900F0E3
:106D6000A280057805F0F003D02B0DD14378112BCC
:106D70004FF0010106D183781C0703D1BDE8F84329
:106D8000FFF7F0BB4948F9E73F2D58D8A90740F174
:106D90008A802846FFF76EFB2A0744BF444B72786F
:106DA000444F48BF1A70EB06D7F8009080461CD5B8
:106DB00004EB0903B3F5806F06D94FF4DE41284692
:106DC000BDE8F843FFF716BC844208D9241A3118ED
:106DD0003948224648444C440AF0CFFC3C603078A5
:106DE0000121BDE8F843FFF79DBCB9F1000F1FD0AA
:106DF0008442314D07D9241A3118224605EB090087
:106E00000AF0BBFCA1442C494A4605EB08000AF0F5
:106E1000C5FB3146284842460AF0C0FB08EB090191
:106E200039602548FFF728FFBDE8F843FFF786BF24
:106E30003146214822460AF0A0FC2146F1E705F040
:106E4000E003A02B09D1A8072DD5290742BF184B75
:106E500072781A7001212846C3E705F0C003C02BE1
:106E600021D1AA071FD515F0300F19D12846FFF7F9
:106E700001FB2B0742BF0E4B72781A700146304659
:106E8000FFF770FB0220FFF70BFB102000F038F932
:106E9000FFF7FAFAFFF752FFBDE8F843FFF7B8BB78
:106EA00046F685118BE7BDE8F88300BFA62F0108E1
:106EB00017200020081C00200C1C002010B590B0EA
:106EC00008A800F095F8234A9DF82A30117813702D
:106ED0009DF8242002F03802302A03D000242046F6
:106EE00010B010BD0B431A0601D5FFF7CDFA9DF87F
:106EF0002A3019434B07F1D59DF92C309DF82C40D1
:106F0000002BEBDD04F01F042146684600F08EF8EC
