:020000040800F2
:10000000000001203D2100088D2100088D210008FD
:100010008D2100088D2100088D21000800000000BE
:100020000000000000000000000000008D2100081A
:100030008D210008000000008D21000879020008D1
:100040008D2100088D2100088D2100088D210008D8
:100050008D2100088D2100088D2100088D210008C8
:100060008D2100088D2100088D2100088D210008B8
:100070008D2100088D2100088D2100088D210008A8
:100080008D2100088D2100088D2100088D21000898
:100090008D2100088D2100088D2100088D21000888
:1000A0008D2100088D2100088D2100088D21000878
:1000B0008D21000800000000000000008D210008D4
:1000C0008D21000800000000000000008D210008C4
:1000D000000000008D2100088D21000800000000B4
:1000E0008D2100088D2100080000000000000000A4
:1000F0000000000000000000000000000000000000
:100100000000000000000000000000008D21000839
:1001100000000000000000008D2100088D21000873
:100120008D2100088D2100088D2100088D210008F7
:100130008D21000800000000000000000000000009
:100140008D2100088D2100088D21000889020008FA
:100150008D2100088D2100088D2100088D210008C7
:100160008D2100088D2100088D210008000000006D
:100170008D2100088D210008000000000000000013
:0C0180008D2100088D2100088D21000851
:10018C0010B5054C237833B9044B13B10448AFF3C5
:10019C0000800123237010BDD4000020000000005B
:1001AC00D821000808B5034B1BB103490348AFF332
:1001BC00008008BD00000000D8000020D8210008F5
:1001CC00034613F8012B002AFBD1181A013870478B
:1001DC00054BD3F8882042F47002C3F888204FF006
:1001EC0000629A60704700BF00ED00E0044A11689D
:1001FC0013685B1A834200D3704700BFF8E700BF57
:10020C00F000002070B50E4C266805460D4800F035
:10021C00EBFA18B923689B1B312BF7D929460948EF
:10022C0000F0EAFA2568074800F0DEFA18B92368EE
:10023C005B1B312BF7D9BDE870400620FFF7D6BF0A
:10024C00F0000020F40000201FB50024CDE900448C
:10025C008DF8000068468DF80210FFF7D3FF02A856
:10026C00CDE90244FFF7CEFF04B010BD024A13687B
:10027C0001331360704700BFF0000020014801F00B
:10028C0087B800BFE0030020FEE7000013B54A4C1E
:10029C004A4AA36D43F08053A365136823F0070308
:1002AC0043F002031360136803F00703022B00D022
:1002BC00FEE7434A136823F4C06343F400731360EE
:1002CC00D4F8983043F00103C4F89830D4F898303F
:1002DC009A07FBD5236843F00103236023689B072F
:1002EC00FCD5236843F008032360236823F0F00354
:1002FC0043F0B0032360636823F47F436360A36817
:10030C0023F00303A360A36813F00C0FFBD1A368C5
:10031C002C4823F0F003A360A36823F4E063A360EC
:10032C00A36823F46053A36001F0EEFE4FF0E022CB
:10033C002448136943F00403136101F0F3FED4F86D
:10034C00883023F04063C4F88830A36D43F0807389
:10035C00A365A36D03F080730193019BA36B43F022
:10036C008073A363A36B23F08073A363164B5A684B
:10037C0022F0E0625A605A6822F000425A605A68D1
:10038C0022F0405242F000525A605A686FF30F024A
:10039C0042F43B4242F07F025A605A6822F47F02D8
:1003AC0042F408125A601A6822F47C5242F4005249
:1003BC001A6002B010BD00BF0010024000200240C5
:1003CC0000700040006CDC02006000402DE9F74F2B
:1003DC00B54C4FF00063A360FFF758FFB34B4FF4DD
:1003EC007A721B68B3FBF2F3013BB3F1807F09D245
:1003FC004FF0E0225361F02384F823300023936103
:10040C0007231361A84B002283F82320A84BD96C37
:10041C0041F00101D964D96C01F0010101910199FC
:10042C00D96C41F00201D964DB6C4FF0904503F0BC
:10043C0002030093009B2C68012393FAA3F1B1FAF9
:10044C0081F19940032000FA01F124EA010193FAA9
:10045C00A3F42960EE6893FAA3F4B4FA84F493FA43
:10046C00A3F19C40B1FA81F100FA04F4994026EA18
:10047C00040403FA01F12143E960D5F8006405F5A1
:10048C008065082191FAA1F4B4FA84F491FAA1F7E9
:10049C009C40B7FA87F700FA04F426EA040407FA3A
:1004AC0003F6B34023432B606B6823F008036B60A7
:1004BC00AC6891FAA1F3B3FA83F35B0000FA03F38F
:1004CC0024EA030391FAA1F4AB60EC6891FAA1F36E
:1004DC00B3FA83F35B00984024EA000491FAA1F08C
:1004EC007448EC60A9627449744FDFF8C89100F04D
:1004FC00A0FA73496F4800F0B1FA6E4800F0B5FAF3
:10050C00D7F8008040F2DC5A99F87432032B35D1BD
:10051C004FF090442369D80730D41E20FFF766FEB5
:10052C002369D9072AD4082615213046AE61FFF776
:10053C008BFE4FF42F70FFF759FEDFF888B11BF8D4
:10054C00014B4CBB5020FFF751FE20462821FFF7F2
:10055C007BFE062408265020AE61FFF747FEAE62F4
:10056C00FFF744FE013CF6D14FF090421369DB07D4
:10057C00FCD5C820FFF73AFE0823AB623B68A3EB1F
:10058C0008035345C0D90824D7F80080AC610F206C
:10059C00FFF72CFEAC62B5E7A4F16103192B0BD865
:1005AC005D3CE4B200202146FFF74EFE6B691A0752
:1005BC004CBFAE62AE61C2E7A4F14103192B03D864
:1005CC003D3CE4B20220EEE7A4F13103082B01D844
:1005DC00133CE6E7402C4DD81F2CB0D9A4F12003D6
:1005EC00202BACD801A252F823F000BFAF060008B4
:1005FC004B0500084B050008AB0600084B0500082E
:10060C004B0500084B0500084B0500084B0500087E
:10061C004B0500084B0500088F0600084B05000829
:10062C00B105000893060008970600087D0600082F
:10063C004B0500084B0500084B0500084B0500084E
:10064C004B0500084B0500084B0500084B0500083E
:10065C004B050008A30600089F0600084B05000880
:10066C008B0600084B0500089B060008A70600082F
:10067C00272497E75F2C7FF462AF2D24A2E72E246A
:10068C0090E72E249EE737248CE738248AE7382419
:10069C0098E7332486E7332494E71F2492E7202439
:1006AC0090E72C247EE700BF00ED00E00000002066
:1006BC0000100240F4000020B8000020F0000020E0
:1006CC0080000020F0210008D0F890320020187330
:1006DC007047000022230380004870475C00002014
:1006EC000A230380004870474400002013B5002201
:1006FC00ADF806200A78D0F8903212F060021DD0C6
:10070C00202A2ED14A78023A092A2AD8DFE802F0A8
:10071C00130A2929292929290F058A781A6000200A
:10072C0002B010BD0122194600F0DCFCF7E74A8844
:10073C00120A5A60F3E70122191DF5E74A780B2AD1
:10074C000FD8DFE802F0060E0E0E0E0E120E0E0E75
:10075C00242C90F87432032B03D102220DF10601E4
:10076C00E2E700F096FC0220DAE74B881B0A222B0A
:10077C0005D1CA880D493F2A28BF3F22D4E7212B37
:10078C00EFD1CA880A49092A28BF0922CCE790F878
:10079C007422032AE5D1012203F10801C4E790F881
:1007AC007422032ADDD18A789A60B8E7040000200D
:1007BC005000002010B58121044600F000F9002003
:1007CC00E06210BD10B5082304460322812100F01D
:1007DC00ECF80123E362034BC4F890320020187349
:1007EC0010BD00BF90030020D0F8900218B1007B20
:1007FC00B0FA80F04009704708B50A4690F87412B8
:10080C0003290AD1D0F890323BB101211973082386
:10081C00812100F000F9002008BD0220FCE7000057
:10082C00122301480B80704738220008042301482A
:10083C000B8070473422000808B504480B46402250
:10084C00034900F031FC024808BD00BF1222000829
:10085C00A003002008B504480B464022034900F0D1
:10086C0023FC024808BD00BF21220008A003002081
:10087C0008B504480B464022034900F015FC024819
:10088C0008BD00BF06220008A0030020104A936D8B
:10089C0043F0806393650F4BDB68C3F30223C3F112
:1008AC0007011A1D042928BF0421062A88BFDA1E55
:1008BC004FF0FF3303FA01F398BF0022DB43934060
:1008CC001B01054ADBB282F843330823936070475F
:1008DC000010024000ED00E000E100E000F5866150
:1008EC00D0F8700400F0DAB800EB4113D0F87004C3
:1008FC00D3F83C2200F0FFB800EB4113D0F87004A1
:10090C00DA6B00F02EB9D0F8700400F0B0B910B565
:10091C0004460121D0F8700400F0A6F9D4F8700454
:10092C00BDE8104000F079B97047704718494A6823
:10093C0008B542F48062034616484A60164AC0F86D
:10094C007034C3F898020823C0E900230023022264
:10095C00C0E90223C0E90423C0E90633036200F0B6
:10096C00F4FB08B1FFF790FC00221146182309484C
:10097C0000F0A6FF582300228021064800F0A0FFBB
:10098C00982300228121034800F09AFF002008BD23
:10099C0000700040E00300200068004008B5D0F86B
:1009AC00980200F044FC002008BD10B51446D0F8A5
:1009BC0098021A46234600F063FC002010BD08B5CF
:1009CC00D0F8980200F08FFC002008BD08B5D0F8D4
:1009DC00980200F00FFF002008BD08B5D0F898026F
:1009EC0000F03CFF002008BD0A06D0F8983245BF45
:1009FC0001F07F0103EB411303EB411393F82A0041
:100A0C0058BF93F82A02704708B5D0F8980200F046
:100A1C0023FC002008BD08B5D0F8980200F0A3FC18
:100A2C00002008BD08B5D0F8980200F087FC002023
:100A3C0008BD08B580B1D0F88C3213B10023C0F8D2
:100A4C008C3209B1C0F88812012380F8743202701C
:100A5C00FFF76CFF002008BD0220FCE719B1C0F8BD
:100A6C008C12002070470220704708B5FFF796FFE4
:100A7C00002008BD08B5D0F88C3233B11B689847FC
:100A8C00003818BF0120400008BD0220FCE708B563
:100A9C00D0F88C325B689847002008BD38B5044606
:100AAC0000F52075284600F0E9FA012394F880122D
:100ABC00C4F86C32B4F88632C4F8703201F01F03FB
:100ACC00012B08D0022B0BD07BB92946204600F015
:100ADC00E5F8002038BD2946204600F021FAF8E759
:100AEC002946204600F040FAF3E701F08001204649
:100AFC00FFF76CFFEDE770B50446164629BBD0F83E
:100B0C006C32032B1CD1D0E953539D420BD9ED1AF7
:100B1C00AB4228BF2B46C0F84C519AB2314600F07C
:100B2C00F6FA002070BDD0F88C321B6923B190F816
:100B3C007422032A00D19847204600F0F0FAF0E71F
:100B4C00052BEED1FFF742FFEBE7D0F88C329B6917
:100B5C002BB190F87422032A01D19847E1E70220C7
:100B6C00E0E7F8B5044613460F46002949D1D0F802
:100B7C006C22022A3AD1D0E90856B54211D9AD1BE4
:100B8C0019460562AAB200F0BAFA3B461A46194653
:100B9C002046FFF747FF94F87832012B2DD0002028
:100BAC00F8BDC369B3FBF6F506FB153565B99E4276
:100BBC000AD8D0F87022934206D22A4600F09FFA47
:100BCC00C4F870522B46E1E7D4F88C32DB682BB1B9
:100BDC0094F87422032A01D120469847802120469C
:100BEC00FFF7F4FE204600F0A5FAD4E732F0040338
:100BFC00D1D18021FFF7EAFECDE7002384F87832CB
:100C0C00CDE7D0F88C325B692BB190F87422032AB3
:100C1C0001D19847C3E70220C2E770B50022044611
:100C2C001146012540264023FFF7BFFE33468021A5
:100C3C00C4F84451C4F8506100222046FFF7B5FEB9
:100C4C00D4F89032A5610021666284F87452C4F81D
:100C5C006C126160C4F87C1223B1D4F88C3220463B
:100C6C005B689847002070BD01740020704708B580
:100C7C0090F87422032A04D1D0F88C32DB6903B1CA
:100C8C009847002008BD10B580210446FFF79EFE52
:100C9C0020460021BDE81040FFF798BE37B50B7811
:100CAC0003F06003202B04460D4606D0402B04D0E5
:100CBC0063B12046FFF7E7FF05E0D4F88C322946F4
:100CCC009B6820469847002003B030BD4B78092B19
:100CDC00EFD801A252F823F0D90E00080F0F00082C
:100CEC00BF0C0008010F0008BF0C0008FF0D000826
:100CFC000D0D0008BF0C0008A90E0008410E0008DD
:100D0C004B881A0A013A062AD3D801A151F822F0CD
:100D1C00390D00085D0D0008770D0008BF0C0008A8
:100D2C00BF0C0008B70D0008CB0D0008D0F88832B6
:100D3C001B68207C0DF106019847BDF80620002A9F
:100D4C0052D0EB88002B46D1204600F0E8F9BAE7E8
:100D5C00027CD0F88C3232B99B6A0DF106009847B0
:100D6C0002234370E9E7DB6AF7E7DBB2052BA0D877
:100D7C00DFE803F003070B0F1317D0F888325B681A
:100D8C00D7E7D0F888329B68D3E7D0F88832DB6895
:100D9C00CFE7D0F888321B69CBE7D0F888325B6993
:100DAC00C7E7D0F888329B69C3E7037C002B80D15E
:100DBC00D0F88C320DF106005B6B9847BDE7037CD5
:100DCC00002B7FF476AFD0F88C320DF106001B6B44
:100DDC0098470723C5E79A4228BF1A460146204682
:100DEC00ADF8062000F07EF9EB88002B7FF46BAF9A
:100DFC00AAE78B88002B7FF45CAFCB88002B7FF4A9
:100E0C0058AF4D887F2D3FF654AF90F87432032BBA
:100E1C003FF44FAFEDB280F876522946FFF7F4FD60
:100E2C00204600F07CF91DB1022384F874324AE7A5
:100E3C000123FAE78978394D012929703FF639AF3A
:100E4C0090F87432022B08D0032B15D0FFF71BFF40
:100E5C0029782046FFF71BFE35E700293FF474AFD5
:100E6C0001210323416080F874322046FFF702FE13
:100E7C0002287FF469AF1CE731B9022380F8743281
:100E8C004160FFF704FE5FE7416801293FF45CAF66
:100E9C00C9B2FFF7FCFD29786160E6E7CA88012A30
:100EAC007FF407AF90F87432022B0AD8002B3FF472
:100EBC0000AF0146002341F8083F204600F012F92C
:100ECC0001E7032B7FF4F5AE011DF6E790F87432C1
:100EDC00013B022B3FF6EDAECA88022A7FF4E9AE45
:100EEC00D0F87C32003B18BF012301465B0041F86F
:100EFC000C3FE2E74B88012B7FF4E5AEC4F87C3263
:100F0C0022E790F87432013B022B3FF6D2AE4B88AD
:100F1C00012B7FF4D8AE0023F0E700BF540800206B
:100F2C0038B50B7803F060025B0604460D4601D51C
:100F3C00402A15D194F87432013B022B10D82B792E
:100F4C00012B0DD8D4F88C3229469B682046984743
:100F5C00EB881BB910B9204600F0E1F8002038BD31
:100F6C002046FFF790FEF9E738B50A7802F06002E8
:100F7C00202A04460B4606D0402A04D05AB12046FB
:100F8C00FFF781FE05E0D4F88C22194692682046C2
:100F9C009047002038BD5A788D880979012A35D0C0
:100FAC00032A21D0002AEAD190F87432022B44D0C3
:100FBC00032BE4D101F00F03142215F0800F02FB78
:100FCC00030349D09B69002BD9D001F07F03142572
:100FDC0003FB05558029054449D02046FFF704FD45
:100FEC00002849D0012343E090F87422022A1BD038
:100FFC00032AC4D15A882AB94A0603D0DB880BB914
:10100C00FFF7E4FC204600F08AF8C2E790F874225F
:10101C00022A09D0032AB2D15B88002BB9D14D0624
:10102C00F0D0FFF7DAFCEDE74B06A8D0FFF7CEFCCB
:10103C0080212046FFF7CAFCABE74A069FD12B065E
:10104C004CBF00F1140100F5A07100230B600222CB
:10105C00204600F047F89CE7D3F84431002B8ED0A3
:10106C00142505FB010505F5A0750029B5D1002354
:10107C002B6002222946EBE72860FAE70B78037015
:10108C004B7843704B8843808B888380CB88C3809C
:10109C00704710B580210446FFF798FC20460021CC
:1010AC00BDE81040FFF792BC70B50D461E460446D5
:1010BC0080B1042A0ED9FFF783F8C2B20132520074
:1010CC0003233280013C6B702A700223002014F839
:1010DC00011F01B970BD5A1CD2B2E9540233A85495
:1010EC00DBB2F4E710B513460222C0E90733C0F8AF
:1010FC006C220A460021FFF78EFC002010BD08B5BB
:10110C0013460A460021FFF786FC002008BD08B5EF
:10111C0013460A460021FFF785FC002008BD08B5E0
:10112C000423C0F86C3200231A461946FFF773FCEF
:10113C00002008BD08B50523C0F86C3200231A4600
:10114C001946FFF76FFC002008BD2DE9F04104465D
:10115C0086B0002869D090F8293403F0FF021BB93F
:10116C0080F82824FFF792FB0323254684F82934C2
:10117C0055F8100B00F0F8FB0FCD6E460FC62B6820
:10118C00336004F1040898E80E00206800F0DAFBE4
:10119C000021206800F0F2FB00212246234604F1D6
:1011AC0010050126084683F82810D98601310F292D
:1011BC00C3E90E0083F8296083F82B00186403F14F
:1011CC002003F0D100231F4682F8283201330F2B65
:1011DC00C2E98E7782F8297282F82B72C2F84072BB
:1011EC0002F12002F0D10FCD6E460FC62B68336092
:1011FC0098E80E00206800F0C3FB012384F82470EB
:10120C0084F82934E369012B02D1204600F083FBDA
:10121C00236A012B02D1204600F069FB206800F004
:10122C0069FE002006B0BDE8F0810120FAE710B598
:10123C0090F82834012B04460CD0012380F8283474
:10124C00006800F04CFE206800F083FB002084F85E
:10125C00280410BD0220FCE710B590F82824012AC0
:10126C0004460BD0012280F8282480F82410006852
:10127C0000F02FFE002084F8280410BD0220FCE7AB
:10128C0070B5054601F00F0011F0800F4FEA4014C5
:10129C0014BF04F1280104F50A7105EB401615BFC3
:1012AC00491949190124002414BF86F8294086F8ED
:1012BC0029420A614A780870CB7002B1C881022BAE
:1012CC0004BF00230B7195F82834012B09D001239E
:1012DC00286885F8283400F071FB002085F8280474
:1012EC0070BD0220FCE701F00F0211F0800F4FEAF5
:1012FC00421310B514BF03F1280103F50A7104461B
:10130C0018BF091900EB42100BBF09190123002368
:10131C0080F8293008BF80F829320A7094F82834F4
:10132C00012B09D00123206884F8283400F09AFCA2
:10133C00002084F8280410BD0220FCE738B501F029
:10134C000F0100EB4114002584F8281284F829526F
:10135C00C4E98F23C4F8445204F50A71006800F004
:10136C00E7FD284638BD38B501F00F0100EB4114FC
:10137C00C4E90F23012384F82810002584F82930B0
:10138C00214665642831006800F0D2FD284638BD3E
:10139C002DE9F0470446006800F0B4FD020408D5BE
:1013AC00C24E40F68F782068B0F844301A0400F131
:1013BC00D080206800F0A6FD43050FD52268B2F856
:1013CC00443023F480631B041B0C2046A2F84430E9
:1013DC00FFF79DFA00212046FFF73EFF206800F042
:1013EC0091FD4304226807D5B2F8443023F48043BE
:1013FC001B041B0CA2F84430104600F083FD87043C
:10140C00226807D5B2F8443023F400531B041B0C9C
:10141C00A2F84430104600F075FDC60426D52268AB
:10142C00B2F8403023F004031B041B0CA2F840302C
:10143C00B2F8403023F008031B041B0CA2F8403018
:10144C0094F86034012B05D1002184F860142046F7
:10145C0000F077FA2046FFF768FA2268B2F84430B9
:10146C0023F480531B041B0CA2F84430206800F0BA
:10147C0049FD05051DD52068B0F840309BB243F0FE
:10148C000803A0F84030B0F8443023F400631B0488
:10149C001B0CA0F84430B0F840309BB243F004036E
:1014AC00A0F8403000F02EFDC00402D42046FFF717
:1014BC003BFA206800F026FD010629D52368B3F815
:1014CC00442022F080021204120CA3F8442094F859
:1014DC006024002A40F08A81B3F8402092B242F096
:1014EC000402A3F84020B3F8402092B242F0080264
:1014FC000121A3F8402084F86014B3F85430C3F3EE
:10150C008D0303F03C03C4F86434204600F019FA50
:10151C00206800F0F7FC82050BD52268B2F8443045
:10152C0023F400731B041B0CA2F844302046FFF775
:10153C00EAF9206800F0E6FCC30508D52268B2F889
:10154C00443023F480731B041B0CA2F84430BDE818
:10155C00F087B0F84450A9B215F00F0540F0AA80FE
:10156C0011F01001038828D19BB23340038094F80A
:10157C002820B0F8503000EBC20212FA83F3E26B71
:10158C00B3F80234C3F309031A446364E2632046DC
:10159C00FFF7B2F994F82430002B3FF404AF226C1F
:1015AC00002A7FF400AF94F82430216843F08003C4
:1015BC00A1F84C3084F82420F5E61F059AB21ED50C
:1015CC0094F82822B0F8503000EBC20212FA83F3E0
:1015DC0004F58661B3F80634B4F82E22C3F309037C
:1015EC00C4F8443200F076FD2268138823F07003AF
:1015FC001B051B0D13802046FFF770F9D3E615046D
:10160C007FF5D1AE038823F070031B051B0D0380FF
:10161C0094F82822B0F8503000EBC20212FA83F38F
:10162C00B3F80634C3F30903C4F8443263B1B4F815
:10163C002E22D4F83C1200F04DFDD4F83C32D4F8F4
:10164C0044221344C4F83C3200212046FFF74CF9E5
:10165C002268D4F83852B2F8501002F2064089B21F
:10166C00B5B9435A23F440639B049B0C43F40043E9
:10167C004352138823F4804323F070031B041B0C88
:10168C0083F4405343F4004343F0800313808AE611
:10169C003D2D95BF05F00103054B03EB55036D097B
:1016AC0094BF9B0243EA85239BB2E1E70F8FFFFFB8
:1016BC000080FFFF30F8253019041FFA83FA39D562
:1016CC0030F8253008EA030304EB451220F82530E6
:1016DC0092F8283292F834C2D2F83C124FEA4519EB
:1016EC00DF00BCF1000F48D1B0F8503017FA83F38B
:1016FC000344B3F80674C7F3090727B1B2F82E22D6
:10170C003B4600F0E7FCA144D9F84432D9F83C221E
:10171C0099F828123B44C9F84432D9F840323A447B
:10172C00C9F83C221BB1D9F83802874257D220465F
:10173C00FFF7DAF81AF0800F3FF435AE236833F870
:10174C00252092B2324023F8252004EB4515B3F83E
:10175C00502095F8281003EBC10313FA82F3EA6BBF
:10176C00B3F80234C3F309031A446B642B6CEA63B9
:10177C002046C3BBFFF7C0F815E630F8233013F44E
:10178C00804FB0F8503017FA83F303441DD0B3F8F0
:10179C000274C7F3090727B1B2F830223B4600F0B8
:1017AC0099FC04EB0903226893F8281232F82130D3
:1017BC0023F4E04323F070031B041B0C43F400439D
:1017CC0043F0C00322F821309DE7B3F80674C7F349
:1017DC000907002FE5D0B2F832223B46DFE720465E
:1017EC00FFF7ACFDA6E7FFF7BEFDDCE52046FFF7F3
:1017FC009BF88DE638B5436801F00F059D42044611
:10180C0028D80B061DD56B0103F1280103440122D6
:10181C00014483F8292001238B700D7094F828243F
:10182C009A4219D0206884F8283400F0EEFA25B9D1
:10183C00206804F5866100F069FB002084F8280418
:10184C0038BD4B0103F50A7103440022014483F8AF
:10185C002922E0E70120F3E70220F1E738B54368DD
:10186C0001F00F029A42044626D811F0800F4FEA7D
:10187C00421315BF03F1280103F50A71091909195F
:10188C0000EB421014BF012300234FF0000514BFDE
:10189C0080F8293080F829328D700A7094F8283439
:1018AC00012B0BD00123206884F8283400F0CDFAEA
:1018BC0084F82854284638BD0120FCE70220FAE7BA
:1018CC0011F0800F1BBF01F00F0100EB411000EB7A
:1018DC004110283008BF00F50A7099B21AB902738A
:1018EC00C18000207047012202738360F9E702680F
:1018FC000123C0F86C34B2F858309BB243F00103AA
:10190C00A2F85830B2F858309BB243F00203A2F858
:10191C00583000207047034601210268C0F8681453
:10192C00002083F86004B2F854309BB20B43A2F849
:10193C005430B2F854309BB243F00203A2F8543046
:10194C007047704784B001A880E80E0004B00020F6
:10195C007047B0F840309BB243F43F4343F08003F0
:10196C00A0F8403000207047B0F8403023F47E538C
:10197C005B045B0CA0F840300020704700207047DF
:10198C0084B010B5044603A880E80E0000200123A3
:10199C00A4F84030A4F84000A4F84400A4F8500087
:1019AC00B4F840309BB243F43F4343F08003A4F8B7
:1019BC004030BDE8104004B070470000F0B50A7824
:1019CC00CD7830F8224024F4EC4424F07004240444
:1019DC000346240C032D03D8DFE805F0434B49479D
:1019EC00012023F8224033F822409B4EA4B234400D
:1019FC00144344F4004444F0800423F822400C7B4C
:101A0C0003EBC207002C78D1CC8891F801C0640894
:101A1C006400BCF1000F2FD0B3F8501017FA81F10D
:101A2C00A1F8004433F822104C0609D533F82210E3
:101A3C0089B2314041F4004141F0C00123F8221039
:101A4C0033F82210854C89B2012D01EA040101D032
:101A5C0081F0200141F4004141F0800123F8221073
:101A6C00B3E044F400742846BBE744F4C06400209F
:101A7C00B7E744F48064FAE7B3F8505017FA85F5E9
:101A8C00A5F80444B3F850500C6917FA85F534BB2B
:101A9C00B5F8061421F440618904890C41F4004125
:101AAC00A5F8061433F8221049040DD533F822108A
:101ABC0021F4E04121F070010904090C41F440418A
:101ACC0041F0800123F8221033F8221021F48041D8
:101ADC0021F070010904090C81F44051BAE73D2C46
:101AEC0095BF04F001015E4901EB5401640994BFF8
:101AFC00890241EA842189B2D2E733F82240A4B2A8
:101B0C00344044F4014444F0800423F82240B3F8F8
:101B1C005040B1F808C017FA84F42CF0010CA4F86A
:101B2C0000C4B3F8504017FA84F44F8927F001072A
:101B3C00A4F804744978002948D133F822104F04D2
:101B4C0009D533F8221089B2314041F4404141F0BB
:101B5C00800123F8221033F822104D060DD533F8EE
:101B6C00221021F4E04121F070010904090C41F428
:101B7C00004141F0C00123F8221033F8221021F467
:101B8C00E04121F070010904090C41F4004141F0DD
:101B9C00C00123F8221033F8221021F4804121F0E7
:101BAC0070010904090C48F2800481F4405121436E
:101BBC0023F8221033F8221021F4E04121F04001E7
:101BCC000904090C0C4323F82240F0BD33F8221011
:101BDC004C0409D533F8221089B2314041F440410C
:101BEC0041F0800123F8221033F8221049060DD55C
:101BFC0033F8221021F4E04121F070010904090CA2
:101C0C0041F4004141F0C00123F8221033F82210B6
:101C1C00124C21F4E04121F070010904090C41F44B
:101C2C00404141F0800123F8221033F8221089B290
:101C3C002140012D18BF81F0200141F4004141F0F9
:101C4C00800123F8221033F8221021F4804121F076
:101C5C0070010904090CFDE68F8FFFFFBF8FFFFF9A
:101C6C000080FFFF4A780B78097BD9BB0AB330F8A8
:101C7C00232051060DD530F8232022F4E04222F027
:101C8C0070021204120C42F4004242F0C00220F81E
:101C9C00232030F8232022F4E04222F040021204E8
:101CAC00120C42F4004242F0800220F82320002063
:101CBC00704730F8232052040DD530F8232022F43D
:101CCC00E04222F070021204120C42F4404242F044
:101CDC00800220F8232030F8232022F4804222F0C6
:101CEC007002DCE7002A4AD130F8232051040DD5CC
:101CFC0030F8232022F4E04222F070021204120C7D
:101D0C0042F4404242F0800220F8232030F8232095
:101D1C0052060DD530F8232022F4E04222F0700256
:101D2C001204120C42F4004242F0C00220F82320AC
:101D3C0030F8232022F4E04222F070021204120C3C
:101D4C0042F4004242F0C00220F8232030F8232055
:101D5C0022F4804222F070021204120C48F280012C
:101D6C000A4320F8232030F8232022F4E04222F00A
:101D7C0040021204120C114320F8231097E730F89C
:101D8C00232051040DD530F8232022F4E04222F018
:101D9C0070021204120C42F4404242F0800220F80D
:101DAC00232030F8232052060DD530F8232022F4BE
:101DBC00E04222F070021204120C42F4004242F093
:101DCC00C00220F8232030F8232022F4E04222F035
:101DDC0070021204120C42F4404242F0800220F8CD
:101DEC00232030F8232022F4E04222F04002120497
:101DFC00120C48F280010A4320F8232030F82320EB
:101E0C0022F4804222F07002B3E74B780A788BB14F
:101E1C0030F8223023F4E04323F040031B041B0C66
:101E2C0083F0100343F4004343F0800320F8223086
:101E3C000020704730F8223023F4804323F07003E5
:101E4C001B041B0C83F48053ECE74B780A781BB310
:101E5C0030F8223059060DD530F8223023F4E04307
:101E6C0023F070031B041B0C43F4004343F0C0032A
:101E7C0020F8223030F8223023F4E04323F04003E2
:101E8C001B041B0C83F0300343F4004343F080032A
:101E9C0020F822300020704730F822305B040DD53A
:101EAC0030F8223023F4E04323F070031B041B0CA6
:101EBC0043F4404343F0800320F8223030F82230C2
:101ECC0023F4804323F070031B041B0C83F4405356
:101EDC00DAE711B98023A0F84C3000207047B0F835
:101EEC0058306FEA43436FEA53439BB2A0F8583023
:101EFC0000207047B0F85830C3F30E03A0F85830E8
:101F0C0000207047B0F8440080B270470020704742
:101F1C0002F58062013310445B0801EB4303401A65
:101F2C00994200D170470A880A520231F8E7000042
:101F3C00F8B5044648788B690A690F7B01280D4671
:101F4C0061D193428ABF991A00211346A9619EB2AE
:101F5C00696907BBEA8833462046FFF7D9FF2A7820
:101F6C00B4F85030D20012FA83F32344A3F802647D
:101F7C002A7834F8223023F4E04323F040031B0486
:101F8C001B0C83F0300343F4004343F0800324F82C
:101F9C0022300020F8BD2A7834F8223013F0400F9C
:101FAC00B4F850304FEAC20212FA83F323442046AD
:101FBC0015BFA3F80664A3F802646A892A8933461C
:101FCC00FFF7A6FF6B782A7873B934F8223023F424
:101FDC00E04323F070031B041B0C43F4004343F059
:101FEC00C00324F82230C3E7012BC1D134F82230CE
:101FFC0023F4E04323F070031B041B0C43F4404315
:10200C0043F08003EDE793428CBF991A0021A9613C
:10201C0088BF134629785FBBB4F8502004F2064001
:10202C0010FA82F253B932F8313023F440639B0436
:10203C009B0C6FEA43436FEA53430BE03D2B05D8EF
:10204C0003F0010000EB53039B0203E05809204B03
:10205C0043EA802322F831302A7834F8223023F4F2
:10206C00804323F070031B041B0C83F440538AE75A
:10207C000028F1D1B4F8500004F2024212FA80F0B8
:10208C00C3B930F8312022F440629204920C42F42D
:10209C00004220F83120B4F8502004F2064010FA27
:1020AC0082F2002BBFD03D2BCAD909485B0940EA0C
:1020BC008323CFE73D2B95BF03F00102044A02EBCB
:1020CC0053025E0994BF920242EA862292B2E0E782
:1020DC000080FFFF02F58062F0B510445D080A46EF
:1020EC002E46471ABC18023236B9DB0744BF30F80B
:1020FC00153001F81530F0BD248802F8024C240A82
:10210C0002F8014C013EEDE74FF47A73B0FBF3F0AB
:10211C004FF0E0230022013858619A6105221A61C0
:10212C0070470000014B1860704700BF0000002092
:10213C00DFF834D0FEF74CF8002103E00B4B5B5872
:10214C00435004310A480B4B42189A42F6D30A4AC0
:10215C0002E0002342F8043B084B9A42F9D300F00A
:10216C0011F8FEF733F9FEE7000001205C220008AD
:10217C0000000020D4000020D400002058080020CB
:10218C00FEE7000070B50D4B0D4D5B1B9C1000263F
:10219C00A64209D100F01AF80A4D0B4B5B1B9C10A0
:1021AC000026A64205D170BD55F8043B9847013670
:1021BC00EEE755F8043B98470136F2E75422000845
:1021CC00542200085422000858220008F8B500BF19
:1021DC00F8BC08BC9E467047F8B500BFF8BC08BCFC
:0421EC009E46704754
:1021F00068747470733A2F2F696E737461677261BB
:102200006D2E636F6D2F7061706174686F75676894
:1022100074003246414B2D44454D4F2D3030303106
:10222000003246414B20427573696E6573732043DB
:1022300061726400040309041201000200000040FE
:0C2240000912AC2F000101020301000094
:08224C0080DFFF7F01000000AC
:04225400B1010008CC
:042258008D010008EC
:10225C0000093D0005010906A101050719E029E760
:10226C0015002501750195088102950175088101FC
:10227C00950575010508190129059102950175034C
:10228C009101950675081500256505071900296546
:10229C008100C0000A06000200000040010000009E
:1022AC00092111010001223F000000000902220057
:1022BC00010100A032090400000103010100092101
:1022CC0011010001223F000705810308000A0000EC
:1022DC00D1070008C1070008F9060008000000003B
:1022EC0000000000D50600080000000000000000FF
:1022FC000000000000000000E1060008E1060008F4
:10230C00E1060008ED0600082D0800083908000851
:10231C007D0800086108000845080008000000005E
:04232C0000000000AD
:040000050800213D91
:00000001FF
